20240912-17:52:02.000000000 : 8=FIX.4.2|9=84|35=A|34=1|49=OPS_CANDIDATE_6_2396|52=20240912-17:52:02.000|56=DTL|98=0|108=30|141=Y|10=156|
20240912-17:52:02.000000000 : 8=FIX.4.2|9=84|35=A|34=1|49=DTL|52=20240912-17:52:02.256|56=OPS_CANDIDATE_6_2396|98=0|108=30|141=Y|10=169|
20240912-17:52:02.000000000 : 8=FIX.4.2|9=121|35=D|34=2|49=OPS_CANDIDATE_6_2396|52=20240912-17:52:02.000|56=DTL|11=order-0|38=100|40=2|44=148.168916456396|54=1|55=BAC|10=224|
20240912-17:52:02.000000000 : 8=FIX.4.2|9=102|35=D|34=3|49=OPS_CANDIDATE_6_2396|52=20240912-17:52:02.000|56=DTL|11=order-1|38=100|40=1|54=1|55=MSFT|10=099|
20240912-17:52:02.000000000 : 8=FIX.4.2|9=121|35=D|34=4|49=OPS_CANDIDATE_6_2396|52=20240912-17:52:02.000|56=DTL|11=order-2|38=100|40=2|44=111.481064526297|54=1|55=BAC|10=208|
20240912-17:52:03.000000000 : 8=FIX.4.2|9=122|35=D|34=5|49=OPS_CANDIDATE_6_2396|52=20240912-17:52:03.000|56=DTL|11=order-3|38=100|40=2|44=103.142366763139|54=1|55=AAPL|10=042|
20240912-17:52:03.000000000 : 8=FIX.4.2|9=121|35=D|34=6|49=OPS_CANDIDATE_6_2396|52=20240912-17:52:03.000|56=DTL|11=order-4|38=100|40=2|44=102.70191358316|54=1|55=AAPL|10=243|
20240912-17:52:03.000000000 : 8=FIX.4.2|9=122|35=D|34=7|49=OPS_CANDIDATE_6_2396|52=20240912-17:52:03.000|56=DTL|11=order-5|38=100|40=2|44=147.871661555836|54=1|55=AAPL|10=064|
20240912-17:52:03.000000000 : 8=FIX.4.2|9=122|35=D|34=8|49=OPS_CANDIDATE_6_2396|52=20240912-17:52:03.000|56=DTL|11=order-6|38=100|40=2|44=130.597114937774|54=2|55=MSFT|10=090|
20240912-17:52:03.000000000 : 8=FIX.4.2|9=102|35=D|34=9|49=OPS_CANDIDATE_6_2396|52=20240912-17:52:03.000|56=DTL|11=order-7|38=100|40=1|54=1|55=AAPL|10=084|
20240912-17:52:03.000000000 : 8=FIX.4.2|9=123|35=D|34=10|49=OPS_CANDIDATE_6_2396|52=20240912-17:52:03.000|56=DTL|11=order-8|38=100|40=2|44=108.401181128147|54=2|55=AAPL|10=085|
20240912-17:52:04.000000000 : 8=FIX.4.2|9=103|35=D|34=11|49=OPS_CANDIDATE_6_2396|52=20240912-17:52:04.000|56=DTL|11=order-9|38=100|40=1|54=2|55=MSFT|10=158|
20240912-17:52:04.000000000 : 8=FIX.4.2|9=104|35=D|34=12|49=OPS_CANDIDATE_6_2396|52=20240912-17:52:04.000|56=DTL|11=order-10|38=100|40=1|54=2|55=AAPL|10=172|
20240912-17:52:04.000000000 : 8=FIX.4.2|9=104|35=D|34=13|49=OPS_CANDIDATE_6_2396|52=20240912-17:52:04.000|56=DTL|11=order-11|38=100|40=1|54=2|55=AAPL|10=174|
20240912-17:52:04.000000000 : 8=FIX.4.2|9=104|35=D|34=14|49=OPS_CANDIDATE_6_2396|52=20240912-17:52:04.000|56=DTL|11=order-12|38=100|40=1|54=1|55=MSFT|10=203|
20240912-17:52:04.000000000 : 8=FIX.4.2|9=123|35=D|34=15|49=OPS_CANDIDATE_6_2396|52=20240912-17:52:04.000|56=DTL|11=order-13|38=100|40=2|44=112.262315961986|54=2|55=BAC|10=062|
20240912-17:52:05.000000000 : 8=FIX.4.2|9=104|35=F|34=16|49=OPS_CANDIDATE_6_2396|52=20240912-17:52:05.000|56=DTL|11=cancel-13|41=order-7|54=1|55=AAPL|10=021|
20240912-17:52:05.000000000 : 8=FIX.4.2|9=124|35=D|34=17|49=OPS_CANDIDATE_6_2396|52=20240912-17:52:05.000|56=DTL|11=order-14|38=100|40=2|44=112.468294594774|54=2|55=AAPL|10=166|
20240912-17:52:05.000000000 : 8=FIX.4.2|9=103|35=F|34=18|49=OPS_CANDIDATE_6_2396|52=20240912-17:52:05.000|56=DTL|11=cancel-14|41=order-2|54=1|55=BAC|10=186|
20240912-17:52:05.000000000 : 8=FIX.4.2|9=104|35=D|34=19|49=OPS_CANDIDATE_6_2396|52=20240912-17:52:05.000|56=DTL|11=order-15|38=100|40=1|54=2|55=AAPL|10=185|
20240912-17:52:05.000000000 : 8=FIX.4.2|9=123|35=D|34=20|49=OPS_CANDIDATE_6_2396|52=20240912-17:52:05.000|56=DTL|11=order-16|38=100|40=2|44=133.862588915501|54=2|55=BAC|10=065|
20240912-17:52:05.000000000 : 8=FIX.4.2|9=124|35=D|34=21|49=OPS_CANDIDATE_6_2396|52=20240912-17:52:05.000|56=DTL|11=order-17|38=100|40=2|44=123.271502493372|54=2|55=MSFT|10=170|
20240912-17:52:05.000000000 : 8=FIX.4.2|9=124|35=D|34=22|49=OPS_CANDIDATE_6_2396|52=20240912-17:52:05.000|56=DTL|11=order-18|38=100|40=2|44=130.873240936326|54=1|55=AAPL|10=149|
20240912-17:52:06.000000000 : 8=FIX.4.2|9=103|35=D|34=23|49=OPS_CANDIDATE_6_2396|52=20240912-17:52:06.000|56=DTL|11=order-19|38=100|40=1|54=1|55=BAC|10=095|
20240912-17:52:06.000000000 : 8=FIX.4.2|9=123|35=D|34=24|49=OPS_CANDIDATE_6_2396|52=20240912-17:52:06.000|56=DTL|11=order-20|38=100|40=2|44=106.66599897762|54=1|55=AAPL|10=120|
20240912-17:52:06.000000000 : 8=FIX.4.2|9=123|35=D|34=25|49=OPS_CANDIDATE_6_2396|52=20240912-17:52:06.000|56=DTL|11=order-21|38=100|40=2|44=129.31644751212|54=2|55=AAPL|10=090|
20240912-17:52:06.000000000 : 8=FIX.4.2|9=124|35=D|34=26|49=OPS_CANDIDATE_6_2396|52=20240912-17:52:06.000|56=DTL|11=order-22|38=100|40=2|44=108.762104263326|54=1|55=AAPL|10=143|
20240912-17:52:06.000000000 : 8=FIX.4.2|9=124|35=D|34=27|49=OPS_CANDIDATE_6_2396|52=20240912-17:52:06.000|56=DTL|11=order-23|38=100|40=2|44=126.802034106768|54=2|55=MSFT|10=177|
20240912-17:52:07.000000000 : 8=FIX.4.2|9=104|35=D|34=28|49=OPS_CANDIDATE_6_2396|52=20240912-17:52:07.000|56=DTL|11=order-24|38=100|40=1|54=2|55=AAPL|10=187|
20240912-17:52:07.000000000 : 8=FIX.4.2|9=105|35=F|34=29|49=OPS_CANDIDATE_6_2396|52=20240912-17:52:07.000|56=DTL|11=cancel-24|41=order-24|54=2|55=AAPL|10=078|
20240912-17:52:07.000000000 : 8=FIX.4.2|9=103|35=D|34=30|49=OPS_CANDIDATE_6_2396|52=20240912-17:52:07.000|56=DTL|11=order-25|38=100|40=1|54=2|55=BAC|10=092|
20240912-17:52:07.000000000 : 8=FIX.4.2|9=104|35=D|34=31|49=OPS_CANDIDATE_6_2396|52=20240912-17:52:07.000|56=DTL|11=order-26|38=100|40=1|54=1|55=MSFT|10=210|
20240912-17:52:07.000000000 : 8=FIX.4.2|9=124|35=D|34=32|49=OPS_CANDIDATE_6_2396|52=20240912-17:52:07.000|56=DTL|11=order-27|38=100|40=2|44=128.709225640494|54=2|55=MSFT|10=187|
20240912-17:52:07.000000000 : 8=FIX.4.2|9=104|35=D|34=33|49=OPS_CANDIDATE_6_2396|52=20240912-17:52:07.000|56=DTL|11=order-28|38=100|40=1|54=1|55=AAPL|10=186|
20240912-17:52:08.000000000 : 8=FIX.4.2|9=104|35=D|34=34|49=OPS_CANDIDATE_6_2396|52=20240912-17:52:08.000|56=DTL|11=order-29|38=100|40=1|54=2|55=MSFT|10=218|
20240912-17:52:08.000000000 : 8=FIX.4.2|9=124|35=D|34=35|49=OPS_CANDIDATE_6_2396|52=20240912-17:52:08.000|56=DTL|11=order-30|38=100|40=2|44=110.702659923921|54=2|55=AAPL|10=151|
20240912-17:52:08.000000000 : 8=FIX.4.2|9=104|35=D|34=36|49=OPS_CANDIDATE_6_2396|52=20240912-17:52:08.000|56=DTL|11=order-31|38=100|40=1|54=2|55=AAPL|10=185|
20240912-17:52:08.000000000 : 8=FIX.4.2|9=123|35=D|34=37|49=OPS_CANDIDATE_6_2396|52=20240912-17:52:08.000|56=DTL|11=order-32|38=100|40=2|44=141.563721257196|54=2|55=BAC|10=069|
20240912-17:52:09.000000000 : 8=FIX.4.2|9=124|35=D|34=38|49=OPS_CANDIDATE_6_2396|52=20240912-17:52:09.000|56=DTL|11=order-33|38=100|40=2|44=136.488584426578|54=1|55=AAPL|10=179|
20240912-17:52:09.000000000 : 8=FIX.4.2|9=105|35=F|34=39|49=OPS_CANDIDATE_6_2396|52=20240912-17:52:09.000|56=DTL|11=cancel-33|41=order-14|54=2|55=AAPL|10=080|
20240912-17:52:09.000000000 : 8=FIX.4.2|9=104|35=D|34=40|49=OPS_CANDIDATE_6_2396|52=20240912-17:52:09.000|56=DTL|11=order-34|38=100|40=1|54=1|55=MSFT|10=211|
20240912-17:52:09.000000000 : 8=FIX.4.2|9=103|35=D|34=41|49=OPS_CANDIDATE_6_2396|52=20240912-17:52:09.000|56=DTL|11=order-35|38=100|40=1|54=2|55=BAC|10=097|
20240912-17:52:09.000000000 : 8=FIX.4.2|9=124|35=D|34=42|49=OPS_CANDIDATE_6_2396|52=20240912-17:52:09.000|56=DTL|11=order-36|38=100|40=2|44=149.447438521424|54=2|55=MSFT|10=189|
20240912-17:52:09.000000000 : 8=FIX.4.2|9=124|35=D|34=43|49=OPS_CANDIDATE_6_2396|52=20240912-17:52:09.000|56=DTL|11=order-37|38=100|40=2|44=127.317142209572|54=2|55=AAPL|10=154|
20240912-17:52:09.000000000 : 8=FIX.4.2|9=103|35=D|34=44|49=OPS_CANDIDATE_6_2396|52=20240912-17:52:09.000|56=DTL|11=order-38|38=100|40=1|54=2|55=BAC|10=103|
20240912-17:52:10.000000000 : 8=FIX.4.2|9=123|35=D|34=45|49=OPS_CANDIDATE_6_2396|52=20240912-17:52:10.000|56=DTL|11=order-39|38=100|40=2|44=115.038081670716|54=1|55=BAC|10=061|
20240912-17:52:10.000000000 : 8=FIX.4.2|9=124|35=D|34=46|49=OPS_CANDIDATE_6_2396|52=20240912-17:52:10.000|56=DTL|11=order-40|38=100|40=2|44=138.801974067394|54=1|55=AAPL|10=159|
20240912-17:52:10.000000000 : 8=FIX.4.2|9=104|35=D|34=47|49=OPS_CANDIDATE_6_2396|52=20240912-17:52:10.000|56=DTL|11=order-41|38=100|40=1|54=2|55=AAPL|10=181|
20240912-17:52:10.000000000 : 8=FIX.4.2|9=105|35=F|34=48|49=OPS_CANDIDATE_6_2396|52=20240912-17:52:10.000|56=DTL|11=cancel-41|41=order-31|54=2|55=AAPL|10=070|
20240912-17:52:10.000000000 : 8=FIX.4.2|9=123|35=D|34=49|49=OPS_CANDIDATE_6_2396|52=20240912-17:52:10.000|56=DTL|11=order-42|38=100|40=2|44=114.392017062481|54=1|55=BAC|10=054|
20240912-17:52:10.000000000 : 8=FIX.4.2|9=124|35=D|34=50|49=OPS_CANDIDATE_6_2396|52=20240912-17:52:10.000|56=DTL|11=order-43|38=100|40=2|44=137.431614384284|54=2|55=MSFT|10=175|
20240912-17:52:11.000000000 : 8=FIX.4.2|9=124|35=D|34=51|49=OPS_CANDIDATE_6_2396|52=20240912-17:52:11.000|56=DTL|11=order-44|38=100|40=2|44=142.009561963052|54=2|55=AAPL|10=144|
20240912-17:52:11.000000000 : 8=FIX.4.2|9=124|35=D|34=52|49=OPS_CANDIDATE_6_2396|52=20240912-17:52:11.000|56=DTL|11=order-45|38=100|40=2|44=116.259567083609|54=2|55=MSFT|10=189|
20240912-17:52:11.000000000 : 8=FIX.4.2|9=104|35=D|34=53|49=OPS_CANDIDATE_6_2396|52=20240912-17:52:11.000|56=DTL|11=order-46|38=100|40=1|54=2|55=AAPL|10=184|
20240912-17:52:11.000000000 : 8=FIX.4.2|9=124|35=D|34=54|49=OPS_CANDIDATE_6_2396|52=20240912-17:52:11.000|56=DTL|11=order-47|38=100|40=2|44=121.933556262828|54=1|55=MSFT|10=187|
20240912-17:52:11.000000000 : 8=FIX.4.2|9=104|35=D|34=55|49=OPS_CANDIDATE_6_2396|52=20240912-17:52:11.000|56=DTL|11=order-48|38=100|40=1|54=1|55=MSFT|10=215|
20240912-17:52:12.000000000 : 8=FIX.4.2|9=104|35=D|34=56|49=OPS_CANDIDATE_6_2396|52=20240912-17:52:12.000|56=DTL|11=order-49|38=100|40=1|54=2|55=MSFT|10=219|
20240912-17:52:12.000000000 : 8=FIX.4.2|9=104|35=D|34=57|49=OPS_CANDIDATE_6_2396|52=20240912-17:52:12.000|56=DTL|11=order-50|38=100|40=1|54=2|55=AAPL|10=184|
20240912-17:52:12.000000000 : 8=FIX.4.2|9=123|35=D|34=58|49=OPS_CANDIDATE_6_2396|52=20240912-17:52:12.000|56=DTL|11=order-51|38=100|40=2|44=127.248864164887|54=2|55=BAC|10=084|
20240912-17:52:12.000000000 : 8=FIX.4.2|9=123|35=D|34=59|49=OPS_CANDIDATE_6_2396|52=20240912-17:52:12.000|56=DTL|11=order-52|38=100|40=2|44=120.399694247782|54=2|55=BAC|10=083|
20240912-17:52:13.000000000 : 8=FIX.4.2|9=105|35=F|34=60|49=OPS_CANDIDATE_6_2396|52=20240912-17:52:13.000|56=DTL|11=cancel-52|41=order-30|54=2|55=AAPL|10=068|
20240912-17:52:13.000000000 : 8=FIX.4.2|9=103|35=D|34=61|49=OPS_CANDIDATE_6_2396|52=20240912-17:52:13.000|56=DTL|11=order-53|38=100|40=1|54=1|55=BAC|10=093|
20240912-17:52:13.000000000 : 8=FIX.4.2|9=123|35=D|34=62|49=OPS_CANDIDATE_6_2396|52=20240912-17:52:13.000|56=DTL|11=order-54|38=100|40=2|44=117.995758255478|54=1|55=BAC|10=089|
20240912-17:52:13.000000000 : 8=FIX.4.2|9=104|35=D|34=63|49=OPS_CANDIDATE_6_2396|52=20240912-17:52:13.000|56=DTL|11=order-55|38=100|40=1|54=1|55=MSFT|10=214|
20240912-17:52:13.000000000 : 8=FIX.4.2|9=104|35=D|34=64|49=OPS_CANDIDATE_6_2396|52=20240912-17:52:13.000|56=DTL|11=order-56|38=100|40=1|54=1|55=MSFT|10=216|
20240912-17:52:14.000000000 : 8=FIX.4.2|9=124|35=D|34=65|49=OPS_CANDIDATE_6_2396|52=20240912-17:52:14.000|56=DTL|11=order-57|38=100|40=2|44=129.662805461454|54=2|55=MSFT|10=194|
20240912-17:52:14.000000000 : 8=FIX.4.2|9=123|35=D|34=66|49=OPS_CANDIDATE_6_2396|52=20240912-17:52:14.000|56=DTL|11=order-58|38=100|40=2|44=105.348246700559|54=2|55=BAC|10=075|
20240912-17:52:14.000000000 : 8=FIX.4.2|9=124|35=D|34=67|49=OPS_CANDIDATE_6_2396|52=20240912-17:52:14.000|56=DTL|11=order-59|38=100|40=2|44=129.917481869228|54=2|55=AAPL|10=184|
20240912-17:52:14.000000000 : 8=FIX.4.2|9=104|35=D|34=68|49=OPS_CANDIDATE_6_2396|52=20240912-17:52:14.000|56=DTL|11=order-60|38=100|40=1|54=2|55=MSFT|10=217|
20240912-17:52:14.000000000 : 8=FIX.4.2|9=124|35=D|34=69|49=OPS_CANDIDATE_6_2396|52=20240912-17:52:14.000|56=DTL|11=order-61|38=100|40=2|44=123.286904256159|54=1|55=AAPL|10=164|
20240912-17:52:15.000000000 : 8=FIX.4.2|9=124|35=D|34=70|49=OPS_CANDIDATE_6_2396|52=20240912-17:52:15.000|56=DTL|11=order-62|38=100|40=2|44=105.552206096532|54=2|55=AAPL|10=147|
20240912-17:52:15.000000000 : 8=FIX.4.2|9=124|35=D|34=71|49=OPS_CANDIDATE_6_2396|52=20240912-17:52:15.000|56=DTL|11=order-63|38=100|40=2|44=105.265653510064|54=2|55=MSFT|10=175|
20240912-17:52:15.000000000 : 8=FIX.4.2|9=124|35=D|34=72|49=OPS_CANDIDATE_6_2396|52=20240912-17:52:15.000|56=DTL|11=order-64|38=100|40=2|44=131.949023714277|54=2|55=AAPL|10=160|
20240912-17:52:15.000000000 : 8=FIX.4.2|9=104|35=D|34=73|49=OPS_CANDIDATE_6_2396|52=20240912-17:52:15.000|56=DTL|11=order-65|38=100|40=1|54=2|55=AAPL|10=191|
20240912-17:52:15.000000000 : 8=FIX.4.2|9=103|35=D|34=74|49=OPS_CANDIDATE_6_2396|52=20240912-17:52:15.000|56=DTL|11=order-66|38=100|40=1|54=2|55=BAC|10=104|
20240912-17:52:15.000000000 : 8=FIX.4.2|9=124|35=D|34=75|49=OPS_CANDIDATE_6_2396|52=20240912-17:52:15.000|56=DTL|11=order-67|38=100|40=2|44=144.604709431366|54=2|55=MSFT|10=192|
20240912-17:52:16.000000000 : 8=FIX.4.2|9=104|35=D|34=76|49=OPS_CANDIDATE_6_2396|52=20240912-17:52:16.000|56=DTL|11=order-68|38=100|40=1|54=1|55=AAPL|10=197|
20240912-17:52:16.000000000 : 8=FIX.4.2|9=124|35=D|34=77|49=OPS_CANDIDATE_6_2396|52=20240912-17:52:16.000|56=DTL|11=order-69|38=100|40=2|44=137.250822746688|54=1|55=MSFT|10=207|
20240912-17:52:16.000000000 : 8=FIX.4.2|9=103|35=D|34=78|49=OPS_CANDIDATE_6_2396|52=20240912-17:52:16.000|56=DTL|11=order-70|38=100|40=1|54=1|55=BAC|10=103|
20240912-17:52:17.000000000 : 8=FIX.4.2|9=124|35=D|34=79|49=OPS_CANDIDATE_6_2396|52=20240912-17:52:17.000|56=DTL|11=order-71|38=100|40=2|44=136.549307845319|54=2|55=MSFT|10=203|
20240912-17:52:17.000000000 : 8=FIX.4.2|9=124|35=D|34=80|49=OPS_CANDIDATE_6_2396|52=20240912-17:52:17.000|56=DTL|11=order-72|38=100|40=2|44=133.080272377431|54=1|55=AAPL|10=150|
20240912-17:52:17.000000000 : 8=FIX.4.2|9=124|35=D|34=81|49=OPS_CANDIDATE_6_2396|52=20240912-17:52:17.000|56=DTL|11=order-73|38=100|40=2|44=126.984088570587|54=2|55=MSFT|10=208|
20240912-17:52:17.000000000 : 8=FIX.4.2|9=105|35=F|34=82|49=OPS_CANDIDATE_6_2396|52=20240912-17:52:17.000|56=DTL|11=cancel-73|41=order-45|54=2|55=MSFT|10=113|
20240912-17:52:17.000000000 : 8=FIX.4.2|9=124|35=D|34=83|49=OPS_CANDIDATE_6_2396|52=20240912-17:52:17.000|56=DTL|11=order-74|38=100|40=2|44=130.846694957917|54=2|55=AAPL|10=184|
20240912-17:52:17.000000000 : 8=FIX.4.2|9=103|35=D|34=84|49=OPS_CANDIDATE_6_2396|52=20240912-17:52:17.000|56=DTL|11=order-75|38=100|40=1|54=1|55=BAC|10=106|
20240912-17:52:18.000000000 : 8=FIX.4.2|9=124|35=D|34=85|49=OPS_CANDIDATE_6_2396|52=20240912-17:52:18.000|56=DTL|11=order-76|38=100|40=2|44=100.996829012751|54=2|55=MSFT|10=198|
20240912-17:52:18.000000000 : 8=FIX.4.2|9=123|35=D|34=86|49=OPS_CANDIDATE_6_2396|52=20240912-17:52:18.000|56=DTL|11=order-77|38=100|40=2|44=148.836639040814|54=1|55=BAC|10=087|
20240912-17:52:18.000000000 : 8=FIX.4.2|9=104|35=D|34=87|49=OPS_CANDIDATE_6_2396|52=20240912-17:52:18.000|56=DTL|11=order-78|38=100|40=1|54=2|55=AAPL|10=203|
20240912-17:52:18.000000000 : 8=FIX.4.2|9=124|35=D|34=88|49=OPS_CANDIDATE_6_2396|52=20240912-17:52:18.000|56=DTL|11=order-79|38=100|40=2|44=148.621675760508|54=2|55=AAPL|10=182|
20240912-17:52:18.000000000 : 8=FIX.4.2|9=103|35=D|34=89|49=OPS_CANDIDATE_6_2396|52=20240912-17:52:18.000|56=DTL|11=order-80|38=100|40=1|54=2|55=BAC|10=109|
20240912-17:52:19.000000000 : 8=FIX.4.2|9=105|35=F|34=90|49=OPS_CANDIDATE_6_2396|52=20240912-17:52:19.000|56=DTL|11=cancel-80|41=order-71|54=2|55=MSFT|10=111|
20240912-17:52:19.000000000 : 8=FIX.4.2|9=103|35=D|34=91|49=OPS_CANDIDATE_6_2396|52=20240912-17:52:19.000|56=DTL|11=order-81|38=100|40=1|54=2|55=BAC|10=104|
20240912-17:52:19.000000000 : 8=FIX.4.2|9=122|35=D|34=92|49=OPS_CANDIDATE_6_2396|52=20240912-17:52:19.000|56=DTL|11=order-82|38=100|40=2|44=122.13843865523|54=1|55=BAC|10=020|
20240912-17:52:19.000000000 : 8=FIX.4.2|9=103|35=D|34=93|49=OPS_CANDIDATE_6_2396|52=20240912-17:52:19.000|56=DTL|11=order-83|38=100|40=1|54=1|55=BAC|10=107|
20240912-17:52:19.000000000 : 8=FIX.4.2|9=105|35=F|34=94|49=OPS_CANDIDATE_6_2396|52=20240912-17:52:19.000|56=DTL|11=cancel-83|41=order-47|54=1|55=MSFT|10=120|
20240912-17:52:19.000000000 : 8=FIX.4.2|9=124|35=D|34=95|49=OPS_CANDIDATE_6_2396|52=20240912-17:52:19.000|56=DTL|11=order-84|38=100|40=2|44=102.778962843817|54=2|55=MSFT|10=212|
20240912-17:52:19.000000000 : 8=FIX.4.2|9=123|35=D|34=96|49=OPS_CANDIDATE_6_2396|52=20240912-17:52:19.000|56=DTL|11=order-85|38=100|40=2|44=136.558770774086|54=1|55=BAC|10=097|
20240912-17:52:20.000000000 : 8=FIX.4.2|9=105|35=F|34=97|49=OPS_CANDIDATE_6_2396|52=20240912-17:52:20.000|56=DTL|11=cancel-85|41=order-40|54=1|55=AAPL|10=082|
20240912-17:52:20.000000000 : 8=FIX.4.2|9=123|35=D|34=98|49=OPS_CANDIDATE_6_2396|52=20240912-17:52:20.000|56=DTL|11=order-86|38=100|40=2|44=115.928621128237|54=1|55=BAC|10=076|
20240912-17:52:20.000000000 : 8=FIX.4.2|9=124|35=D|34=99|49=OPS_CANDIDATE_6_2396|52=20240912-17:52:20.000|56=DTL|11=order-87|38=100|40=2|44=123.017621504197|54=1|55=MSFT|10=186|
20240912-17:52:20.000000000 : 8=FIX.4.2|9=105|35=D|34=100|49=OPS_CANDIDATE_6_2396|52=20240912-17:52:20.000|56=DTL|11=order-88|38=100|40=1|54=2|55=AAPL|10=232|
20240912-17:52:20.000000000 : 8=FIX.4.2|9=106|35=F|34=101|49=OPS_CANDIDATE_6_2396|52=20240912-17:52:20.000|56=DTL|11=cancel-88|41=order-61|54=1|55=AAPL|10=123|
20240912-17:52:20.000000000 : 8=FIX.4.2|9=105|35=D|34=102|49=OPS_CANDIDATE_6_2396|52=20240912-17:52:20.000|56=DTL|11=order-89|38=100|40=1|54=2|55=MSFT|10=007|
20240912-17:52:21.000000000 : 8=FIX.4.2|9=125|35=D|34=103|49=OPS_CANDIDATE_6_2396|52=20240912-17:52:21.000|56=DTL|11=order-90|38=100|40=2|44=123.138841039242|54=1|55=MSFT|10=218|
20240912-17:52:21.000000000 : 8=FIX.4.2|9=125|35=D|34=104|49=OPS_CANDIDATE_6_2396|52=20240912-17:52:21.000|56=DTL|11=order-91|38=100|40=2|44=127.263931762714|54=2|55=AAPL|10=203|
20240912-17:52:21.000000000 : 8=FIX.4.2|9=125|35=D|34=105|49=OPS_CANDIDATE_6_2396|52=20240912-17:52:21.000|56=DTL|11=order-92|38=100|40=2|44=142.744851338978|54=1|55=AAPL|10=217|
20240912-17:52:21.000000000 : 8=FIX.4.2|9=106|35=F|34=106|49=OPS_CANDIDATE_6_2396|52=20240912-17:52:21.000|56=DTL|11=cancel-92|41=order-44|54=2|55=AAPL|10=126|
20240912-17:52:21.000000000 : 8=FIX.4.2|9=105|35=D|34=107|49=OPS_CANDIDATE_6_2396|52=20240912-17:52:21.000|56=DTL|11=order-93|38=100|40=1|54=1|55=MSFT|10=007|
20240912-17:52:21.000000000 : 8=FIX.4.2|9=125|35=D|34=108|49=OPS_CANDIDATE_6_2396|52=20240912-17:52:21.000|56=DTL|11=order-94|38=100|40=2|44=141.222043525336|54=1|55=AAPL|10=191|
20240912-17:52:22.000000000 : 8=FIX.4.2|9=105|35=D|34=109|49=OPS_CANDIDATE_6_2396|52=20240912-17:52:22.000|56=DTL|11=order-95|38=100|40=1|54=2|55=AAPL|10=241|
20240912-17:52:22.000000000 : 8=FIX.4.2|9=106|35=F|34=110|49=OPS_CANDIDATE_6_2396|52=20240912-17:52:22.000|56=DTL|11=cancel-95|41=order-79|54=2|55=AAPL|10=133|
20240912-17:52:22.000000000 : 8=FIX.4.2|9=105|35=D|34=111|49=OPS_CANDIDATE_6_2396|52=20240912-17:52:22.000|56=DTL|11=order-96|38=100|40=1|54=1|55=MSFT|10=006|
20240912-17:52:22.000000000 : 8=FIX.4.2|9=104|35=D|34=112|49=OPS_CANDIDATE_6_2396|52=20240912-17:52:22.000|56=DTL|11=order-97|38=100|40=1|54=1|55=BAC|10=147|
20240912-17:52:22.000000000 : 8=FIX.4.2|9=125|35=D|34=113|49=OPS_CANDIDATE_6_2396|52=20240912-17:52:22.000|56=DTL|11=order-98|38=100|40=2|44=106.020915118731|54=1|55=AAPL|10=194|
20240912-17:52:23.000000000 : 8=FIX.4.2|9=105|35=D|34=114|49=OPS_CANDIDATE_6_2396|52=20240912-17:52:23.000|56=DTL|11=order-99|38=100|40=1|54=1|55=AAPL|10=241|
20240912-17:52:23.000000000 : 8=FIX.4.2|9=125|35=D|34=115|49=OPS_CANDIDATE_6_2396|52=20240912-17:52:23.000|56=DTL|11=order-100|38=100|40=2|44=121.454992829791|54=1|55=BAC|10=169|
20240912-17:52:23.000000000 : 8=FIX.4.2|9=106|35=D|34=116|49=OPS_CANDIDATE_6_2396|52=20240912-17:52:23.000|56=DTL|11=order-101|38=100|40=1|54=1|55=AAPL|10=020|
20240912-17:52:23.000000000 : 8=FIX.4.2|9=107|35=F|34=117|49=OPS_CANDIDATE_6_2396|52=20240912-17:52:23.000|56=DTL|11=cancel-101|41=order-93|54=1|55=MSFT|10=201|
20240912-17:52:23.000000000 : 8=FIX.4.2|9=106|35=D|34=118|49=OPS_CANDIDATE_6_2396|52=20240912-17:52:23.000|56=DTL|11=order-102|38=100|40=1|54=1|55=MSFT|10=051|
20240912-17:52:23.000000000 : 8=FIX.4.2|9=125|35=D|34=119|49=OPS_CANDIDATE_6_2396|52=20240912-17:52:23.000|56=DTL|11=order-103|38=100|40=2|44=134.163201137467|54=1|55=BAC|10=152|
20240912-17:52:24.000000000 : 8=FIX.4.2|9=106|35=D|34=120|49=OPS_CANDIDATE_6_2396|52=20240912-17:52:24.000|56=DTL|11=order-104|38=100|40=1|54=1|55=MSFT|10=047|
20240912-17:52:24.000000000 : 8=FIX.4.2|9=125|35=D|34=121|49=OPS_CANDIDATE_6_2396|52=20240912-17:52:24.000|56=DTL|11=order-105|38=100|40=2|44=103.696814126859|54=2|55=BAC|10=169|
20240912-17:52:24.000000000 : 8=FIX.4.2|9=105|35=D|34=122|49=OPS_CANDIDATE_6_2396|52=20240912-17:52:24.000|56=DTL|11=order-106|38=100|40=1|54=1|55=BAC|10=190|
20240912-17:52:24.000000000 : 8=FIX.4.2|9=126|35=D|34=123|49=OPS_CANDIDATE_6_2396|52=20240912-17:52:24.000|56=DTL|11=order-107|38=100|40=2|44=144.152036630693|54=2|55=MSFT|10=018|
20240912-17:52:25.000000000 : 8=FIX.4.2|9=107|35=F|34=124|49=OPS_CANDIDATE_6_2396|52=20240912-17:52:25.000|56=DTL|11=cancel-107|41=order-84|54=2|55=MSFT|10=208|
20240912-17:52:25.000000000 : 8=FIX.4.2|9=105|35=D|34=125|49=OPS_CANDIDATE_6_2396|52=20240912-17:52:25.000|56=DTL|11=order-108|38=100|40=1|54=2|55=BAC|10=197|
20240912-17:52:25.000000000 : 8=FIX.4.2|9=106|35=F|34=126|49=OPS_CANDIDATE_6_2396|52=20240912-17:52:25.000|56=DTL|11=cancel-108|41=order-80|54=2|55=BAC|10=090|
20240912-17:52:25.000000000 : 8=FIX.4.2|9=106|35=D|34=127|49=OPS_CANDIDATE_6_2396|52=20240912-17:52:25.000|56=DTL|11=order-109|38=100|40=1|54=1|55=MSFT|10=060|
20240912-17:52:25.000000000 : 8=FIX.4.2|9=126|35=D|34=128|49=OPS_CANDIDATE_6_2396|52=20240912-17:52:25.000|56=DTL|11=order-110|38=100|40=2|44=114.599148147501|54=1|55=AAPL|10=252|
20240912-17:52:25.000000000 : 8=FIX.4.2|9=106|35=D|34=129|49=OPS_CANDIDATE_6_2396|52=20240912-17:52:25.000|56=DTL|11=order-111|38=100|40=1|54=1|55=MSFT|10=055|
20240912-17:52:26.000000000 : 8=FIX.4.2|9=106|35=D|34=130|49=OPS_CANDIDATE_6_2396|52=20240912-17:52:26.000|56=DTL|11=order-112|38=100|40=1|54=1|55=MSFT|10=049|
20240912-17:52:26.000000000 : 8=FIX.4.2|9=125|35=D|34=131|49=OPS_CANDIDATE_6_2396|52=20240912-17:52:26.000|56=DTL|11=order-113|38=100|40=2|44=137.39820540689|54=2|55=AAPL|10=207|
20240912-17:52:26.000000000 : 8=FIX.4.2|9=106|35=D|34=132|49=OPS_CANDIDATE_6_2396|52=20240912-17:52:26.000|56=DTL|11=order-114|38=100|40=1|54=1|55=MSFT|10=053|
20240912-17:52:26.000000000 : 8=FIX.4.2|9=126|35=D|34=133|49=OPS_CANDIDATE_6_2396|52=20240912-17:52:26.000|56=DTL|11=order-115|38=100|40=2|44=131.314376341764|54=1|55=MSFT|10=020|
20240912-17:52:27.000000000 : 8=FIX.4.2|9=105|35=F|34=134|49=OPS_CANDIDATE_6_2396|52=20240912-17:52:27.000|56=DTL|11=cancel-115|41=order-0|54=1|55=BAC|10=031|
20240912-17:52:27.000000000 : 8=FIX.4.2|9=126|35=D|34=135|49=OPS_CANDIDATE_6_2396|52=20240912-17:52:27.000|56=DTL|11=order-116|38=100|40=2|44=130.933703360319|54=1|55=AAPL|10=249|
20240912-17:52:27.000000000 : 8=FIX.4.2|9=106|35=D|34=136|49=OPS_CANDIDATE_6_2396|52=20240912-17:52:27.000|56=DTL|11=order-117|38=100|40=1|54=1|55=AAPL|10=033|
20240912-17:52:27.000000000 : 8=FIX.4.2|9=126|35=D|34=137|49=OPS_CANDIDATE_6_2396|52=20240912-17:52:27.000|56=DTL|11=order-118|38=100|40=2|44=105.034001431075|54=1|55=MSFT|10=008|
20240912-17:52:27.000000000 : 8=FIX.4.2|9=106|35=F|34=138|49=OPS_CANDIDATE_6_2396|52=20240912-17:52:27.000|56=DTL|11=cancel-118|41=order-66|54=2|55=BAC|10=100|
20240912-17:52:27.000000000 : 8=FIX.4.2|9=124|35=D|34=139|49=OPS_CANDIDATE_6_2396|52=20240912-17:52:27.000|56=DTL|11=order-119|38=100|40=2|44=100.56094500381|54=1|55=BAC|10=109|
20240912-17:52:27.000000000 : 8=FIX.4.2|9=126|35=D|34=140|49=OPS_CANDIDATE_6_2396|52=20240912-17:52:27.000|56=DTL|11=order-120|38=100|40=2|44=104.730280300055|54=2|55=AAPL|10=228|
20240912-17:52:27.000000000 : 8=FIX.4.2|9=125|35=D|34=141|49=OPS_CANDIDATE_6_2396|52=20240912-17:52:27.000|56=DTL|11=order-121|38=100|40=2|44=125.287729833487|54=1|55=BAC|10=178|
20240912-17:52:28.000000000 : 8=FIX.4.2|9=106|35=D|34=142|49=OPS_CANDIDATE_6_2396|52=20240912-17:52:28.000|56=DTL|11=order-122|38=100|40=1|54=1|55=AAPL|10=027|
20240912-17:52:28.000000000 : 8=FIX.4.2|9=106|35=D|34=143|49=OPS_CANDIDATE_6_2396|52=20240912-17:52:28.000|56=DTL|11=order-123|38=100|40=1|54=2|55=MSFT|10=058|
20240912-17:52:28.000000000 : 8=FIX.4.2|9=126|35=D|34=144|49=OPS_CANDIDATE_6_2396|52=20240912-17:52:28.000|56=DTL|11=order-124|38=100|40=2|44=128.175964511867|54=1|55=MSFT|10=041|
20240912-17:52:28.000000000 : 8=FIX.4.2|9=108|35=F|34=145|49=OPS_CANDIDATE_6_2396|52=20240912-17:52:28.000|56=DTL|11=cancel-124|41=order-114|54=1|55=MSFT|10=255|
20240912-17:52:28.000000000 : 8=FIX.4.2|9=125|35=D|34=146|49=OPS_CANDIDATE_6_2396|52=20240912-17:52:28.000|56=DTL|11=order-125|38=100|40=2|44=102.516933149458|54=1|55=BAC|10=173|
20240912-17:52:28.000000000 : 8=FIX.4.2|9=106|35=D|34=147|49=OPS_CANDIDATE_6_2396|52=20240912-17:52:28.000|56=DTL|11=order-126|38=100|40=1|54=2|55=AAPL|10=037|
20240912-17:52:29.000000000 : 8=FIX.4.2|9=125|35=D|34=148|49=OPS_CANDIDATE_6_2396|52=20240912-17:52:29.000|56=DTL|11=order-127|38=100|40=2|44=127.894007503777|54=1|55=BAC|10=184|
20240912-17:52:29.000000000 : 8=FIX.4.2|9=126|35=D|34=149|49=OPS_CANDIDATE_6_2396|52=20240912-17:52:29.000|56=DTL|11=order-128|38=100|40=2|44=113.362223472061|54=2|55=AAPL|10=252|
20240912-17:52:29.000000000 : 8=FIX.4.2|9=106|35=D|34=150|49=OPS_CANDIDATE_6_2396|52=20240912-17:52:29.000|56=DTL|11=order-129|38=100|40=1|54=1|55=MSFT|10=062|
20240912-17:52:29.000000000 : 8=FIX.4.2|9=125|35=D|34=151|49=OPS_CANDIDATE_6_2396|52=20240912-17:52:29.000|56=DTL|11=order-130|38=100|40=2|44=114.178729742432|54=1|55=BAC|10=167|
20240912-17:52:30.000000000 : 8=FIX.4.2|9=106|35=F|34=152|49=OPS_CANDIDATE_6_2396|52=20240912-17:52:30.000|56=DTL|11=cancel-130|41=order-35|54=2|55=BAC|10=080|
20240912-17:52:30.000000000 : 8=FIX.4.2|9=106|35=D|34=153|49=OPS_CANDIDATE_6_2396|52=20240912-17:52:30.000|56=DTL|11=order-131|38=100|40=1|54=2|55=MSFT|10=051|
20240912-17:52:30.000000000 : 8=FIX.4.2|9=106|35=D|34=154|49=OPS_CANDIDATE_6_2396|52=20240912-17:52:30.000|56=DTL|11=order-132|38=100|40=1|54=2|55=MSFT|10=053|
20240912-17:52:30.000000000 : 8=FIX.4.2|9=105|35=D|34=155|49=OPS_CANDIDATE_6_2396|52=20240912-17:52:30.000|56=DTL|11=order-133|38=100|40=1|54=1|55=BAC|10=193|
20240912-17:52:30.000000000 : 8=FIX.4.2|9=105|35=D|34=156|49=OPS_CANDIDATE_6_2396|52=20240912-17:52:30.000|56=DTL|11=order-134|38=100|40=1|54=2|55=BAC|10=196|
20240912-17:52:30.000000000 : 8=FIX.4.2|9=125|35=D|34=157|49=OPS_CANDIDATE_6_2396|52=20240912-17:52:30.000|56=DTL|11=order-135|38=100|40=2|44=126.246600642687|54=2|55=BAC|10=169|
20240912-17:52:31.000000000 : 8=FIX.4.2|9=126|35=D|34=158|49=OPS_CANDIDATE_6_2396|52=20240912-17:52:31.000|56=DTL|11=order-136|38=100|40=2|44=137.086778582388|54=2|55=AAPL|10=026|
20240912-17:52:31.000000000 : 8=FIX.4.2|9=106|35=F|34=159|49=OPS_CANDIDATE_6_2396|52=20240912-17:52:31.000|56=DTL|11=cancel-136|41=order-5|54=1|55=AAPL|10=130|
20240912-17:52:31.000000000 : 8=FIX.4.2|9=126|35=D|34=160|49=OPS_CANDIDATE_6_2396|52=20240912-17:52:31.000|56=DTL|11=order-137|38=100|40=2|44=105.850715406132|54=2|55=AAPL|10=243|
20240912-17:52:31.000000000 : 8=FIX.4.2|9=125|35=D|34=161|49=OPS_CANDIDATE_6_2396|52=20240912-17:52:31.000|56=DTL|11=order-138|38=100|40=2|44=129.22325841224|54=2|55=MSFT|10=223|
20240912-17:52:31.000000000 : 8=FIX.4.2|9=106|35=D|34=162|49=OPS_CANDIDATE_6_2396|52=20240912-17:52:31.000|56=DTL|11=order-139|38=100|40=1|54=1|55=MSFT|10=059|
20240912-17:52:32.000000000 : 8=FIX.4.2|9=106|35=D|34=163|49=OPS_CANDIDATE_6_2396|52=20240912-17:52:32.000|56=DTL|11=order-140|38=100|40=1|54=1|55=AAPL|10=025|
20240912-17:52:32.000000000 : 8=FIX.4.2|9=126|35=D|34=164|49=OPS_CANDIDATE_6_2396|52=20240912-17:52:32.000|56=DTL|11=order-141|38=100|40=2|44=139.963753662617|54=1|55=MSFT|10=040|
20240912-17:52:32.000000000 : 8=FIX.4.2|9=106|35=F|34=165|49=OPS_CANDIDATE_6_2396|52=20240912-17:52:32.000|56=DTL|11=cancel-141|41=order-3|54=1|55=AAPL|10=122|
20240912-17:52:32.000000000 : 8=FIX.4.2|9=126|35=D|34=166|49=OPS_CANDIDATE_6_2396|52=20240912-17:52:32.000|56=DTL|11=order-142|38=100|40=2|44=127.112583663128|54=1|55=MSFT|10=025|
20240912-17:52:32.000000000 : 8=FIX.4.2|9=125|35=D|34=167|49=OPS_CANDIDATE_6_2396|52=20240912-17:52:32.000|56=DTL|11=order-143|38=100|40=2|44=113.874233725877|54=1|55=BAC|10=178|
20240912-17:52:32.000000000 : 8=FIX.4.2|9=126|35=D|34=168|49=OPS_CANDIDATE_6_2396|52=20240912-17:52:32.000|56=DTL|11=order-144|38=100|40=2|44=107.904016446559|54=1|55=MSFT|10=034|
20240912-17:52:32.000000000 : 8=FIX.4.2|9=126|35=D|34=169|49=OPS_CANDIDATE_6_2396|52=20240912-17:52:32.000|56=DTL|11=order-145|38=100|40=2|44=107.023062501128|54=2|55=AAPL|10=242|
20240912-17:52:33.000000000 : 8=FIX.4.2|9=107|35=F|34=170|49=OPS_CANDIDATE_6_2396|52=20240912-17:52:33.000|56=DTL|11=cancel-145|41=order-90|54=1|55=MSFT|10=206|
20240912-17:52:33.000000000 : 8=FIX.4.2|9=125|35=D|34=171|49=OPS_CANDIDATE_6_2396|52=20240912-17:52:33.000|56=DTL|11=order-146|38=100|40=2|44=101.067712996501|54=1|55=BAC|10=164|
20240912-17:52:33.000000000 : 8=FIX.4.2|9=106|35=D|34=172|49=OPS_CANDIDATE_6_2396|52=20240912-17:52:33.000|56=DTL|11=order-147|38=100|40=1|54=1|55=MSFT|10=061|
20240912-17:52:33.000000000 : 8=FIX.4.2|9=106|35=D|34=173|49=OPS_CANDIDATE_6_2396|52=20240912-17:52:33.000|56=DTL|11=order-148|38=100|40=1|54=2|55=AAPL|10=036|
20240912-17:52:33.000000000 : 8=FIX.4.2|9=105|35=D|34=174|49=OPS_CANDIDATE_6_2396|52=20240912-17:52:33.000|56=DTL|11=order-149|38=100|40=1|54=1|55=BAC|10=204|
20240912-17:52:34.000000000 : 8=FIX.4.2|9=105|35=D|34=175|49=OPS_CANDIDATE_6_2396|52=20240912-17:52:34.000|56=DTL|11=order-150|38=100|40=1|54=1|55=BAC|10=198|
20240912-17:52:34.000000000 : 8=FIX.4.2|9=125|35=D|34=176|49=OPS_CANDIDATE_6_2396|52=20240912-17:52:34.000|56=DTL|11=order-151|38=100|40=2|44=122.55683920891|54=2|55=AAPL|10=213|
20240912-17:52:34.000000000 : 8=FIX.4.2|9=107|35=F|34=177|49=OPS_CANDIDATE_6_2396|52=20240912-17:52:34.000|56=DTL|11=cancel-151|41=order-72|54=1|55=AAPL|10=183|
20240912-17:52:34.000000000 : 8=FIX.4.2|9=125|35=D|34=178|49=OPS_CANDIDATE_6_2396|52=20240912-17:52:34.000|56=DTL|11=order-152|38=100|40=2|44=124.623350565013|54=1|55=BAC|10=160|
20240912-17:52:34.000000000 : 8=FIX.4.2|9=107|35=F|34=179|49=OPS_CANDIDATE_6_2396|52=20240912-17:52:34.000|56=DTL|11=cancel-152|41=order-88|54=2|55=AAPL|10=194|
20240912-17:52:34.000000000 : 8=FIX.4.2|9=125|35=D|34=180|49=OPS_CANDIDATE_6_2396|52=20240912-17:52:34.000|56=DTL|11=order-153|38=100|40=2|44=105.679850641032|54=2|55=BAC|10=166|
20240912-17:52:34.000000000 : 8=FIX.4.2|9=105|35=D|34=181|49=OPS_CANDIDATE_6_2396|52=20240912-17:52:34.000|56=DTL|11=order-154|38=100|40=1|54=2|55=BAC|10=200|
20240912-17:52:34.000000000 : 8=FIX.4.2|9=105|35=D|34=182|49=OPS_CANDIDATE_6_2396|52=20240912-17:52:34.000|56=DTL|11=order-155|38=100|40=1|54=1|55=BAC|10=201|
20240912-17:52:35.000000000 : 8=FIX.4.2|9=106|35=D|34=183|49=OPS_CANDIDATE_6_2396|52=20240912-17:52:35.000|56=DTL|11=order-156|38=100|40=1|54=1|55=AAPL|10=037|
20240912-17:52:35.000000000 : 8=FIX.4.2|9=106|35=D|34=184|49=OPS_CANDIDATE_6_2396|52=20240912-17:52:35.000|56=DTL|11=order-157|38=100|40=1|54=1|55=MSFT|10=067|
20240912-17:52:35.000000000 : 8=FIX.4.2|9=126|35=D|34=185|49=OPS_CANDIDATE_6_2396|52=20240912-17:52:35.000|56=DTL|11=order-158|38=100|40=2|44=137.943366309522|54=2|55=MSFT|10=044|
20240912-17:52:35.000000000 : 8=FIX.4.2|9=126|35=D|34=186|49=OPS_CANDIDATE_6_2396|52=20240912-17:52:35.000|56=DTL|11=order-159|38=100|40=2|44=128.846217333413|54=1|55=AAPL|10=010|
20240912-17:52:36.000000000 : 8=FIX.4.2|9=106|35=F|34=187|49=OPS_CANDIDATE_6_2396|52=20240912-17:52:36.000|56=DTL|11=cancel-159|41=order-83|54=1|55=BAC|10=107|
20240912-17:52:36.000000000 : 8=FIX.4.2|9=106|35=D|34=188|49=OPS_CANDIDATE_6_2396|52=20240912-17:52:36.000|56=DTL|11=order-160|38=100|40=1|54=2|55=AAPL|10=039|
20240912-17:52:36.000000000 : 8=FIX.4.2|9=107|35=F|34=189|49=OPS_CANDIDATE_6_2396|52=20240912-17:52:36.000|56=DTL|11=cancel-160|41=order-18|54=1|55=AAPL|10=188|
20240912-17:52:36.000000000 : 8=FIX.4.2|9=125|35=D|34=190|49=OPS_CANDIDATE_6_2396|52=20240912-17:52:36.000|56=DTL|11=order-161|38=100|40=2|44=145.219101453701|54=2|55=BAC|10=155|
20240912-17:52:36.000000000 : 8=FIX.4.2|9=106|35=D|34=191|49=OPS_CANDIDATE_6_2396|52=20240912-17:52:36.000|56=DTL|11=order-162|38=100|40=1|54=1|55=AAPL|10=034|
20240912-17:52:36.000000000 : 8=FIX.4.2|9=105|35=D|34=192|49=OPS_CANDIDATE_6_2396|52=20240912-17:52:36.000|56=DTL|11=order-163|38=100|40=1|54=2|55=BAC|10=204|
20240912-17:52:36.000000000 : 8=FIX.4.2|9=105|35=D|34=193|49=OPS_CANDIDATE_6_2396|52=20240912-17:52:36.000|56=DTL|11=order-164|38=100|40=1|54=1|55=BAC|10=205|
20240912-17:52:37.000000000 : 8=FIX.4.2|9=126|35=D|34=194|49=OPS_CANDIDATE_6_2396|52=20240912-17:52:37.000|56=DTL|11=order-165|38=100|40=2|44=126.817321487316|54=1|55=AAPL|10=012|
20240912-17:52:37.000000000 : 8=FIX.4.2|9=125|35=D|34=195|49=OPS_CANDIDATE_6_2396|52=20240912-17:52:37.000|56=DTL|11=order-166|38=100|40=2|44=122.03490602657|54=1|55=AAPL|10=208|
20240912-17:52:37.000000000 : 8=FIX.4.2|9=106|35=F|34=196|49=OPS_CANDIDATE_6_2396|52=20240912-17:52:37.000|56=DTL|11=cancel-166|41=order-25|54=2|55=BAC|10=103|
20240912-17:52:37.000000000 : 8=FIX.4.2|9=126|35=D|34=197|49=OPS_CANDIDATE_6_2396|52=20240912-17:52:37.000|56=DTL|11=order-167|38=100|40=2|44=105.081684179618|54=2|55=AAPL|10=023|
20240912-17:52:37.000000000 : 8=FIX.4.2|9=126|35=D|34=198|49=OPS_CANDIDATE_6_2396|52=20240912-17:52:37.000|56=DTL|11=order-168|38=100|40=2|44=116.015654264556|54=2|55=AAPL|10=017|
20240912-17:52:37.000000000 : 8=FIX.4.2|9=106|35=D|34=199|49=OPS_CANDIDATE_6_2396|52=20240912-17:52:37.000|56=DTL|11=order-169|38=100|40=1|54=1|55=AAPL|10=050|
20240912-17:52:38.000000000 : 8=FIX.4.2|9=107|35=F|34=200|49=OPS_CANDIDATE_6_2396|52=20240912-17:52:38.000|56=DTL|11=cancel-169|41=order-91|54=2|55=AAPL|10=185|
20240912-17:52:38.000000000 : 8=FIX.4.2|9=126|35=D|34=201|49=OPS_CANDIDATE_6_2396|52=20240912-17:52:38.000|56=DTL|11=order-170|38=100|40=2|44=132.669400582508|54=2|55=MSFT|10=026|
20240912-17:52:38.000000000 : 8=FIX.4.2|9=105|35=D|34=202|49=OPS_CANDIDATE_6_2396|52=20240912-17:52:38.000|56=DTL|11=order-171|38=100|40=1|54=1|55=BAC|10=196|
20240912-17:52:38.000000000 : 8=FIX.4.2|9=106|35=D|34=203|49=OPS_CANDIDATE_6_2396|52=20240912-17:52:38.000|56=DTL|11=order-172|38=100|40=1|54=2|55=AAPL|10=032|
20240912-17:52:38.000000000 : 8=FIX.4.2|9=126|35=D|34=204|49=OPS_CANDIDATE_6_2396|52=20240912-17:52:38.000|56=DTL|11=order-173|38=100|40=2|44=108.154215770153|54=1|55=AAPL|10=250|
20240912-17:52:38.000000000 : 8=FIX.4.2|9=124|35=D|34=205|49=OPS_CANDIDATE_6_2396|52=20240912-17:52:38.000|56=DTL|11=order-174|38=100|40=2|44=142.94955357337|54=2|55=BAC|10=132|
20240912-17:52:38.000000000 : 8=FIX.4.2|9=106|35=D|34=206|49=OPS_CANDIDATE_6_2396|52=20240912-17:52:38.000|56=DTL|11=order-175|38=100|40=1|54=1|55=MSFT|10=065|
20240912-17:52:39.000000000 : 8=FIX.4.2|9=105|35=D|34=207|49=OPS_CANDIDATE_6_2396|52=20240912-17:52:39.000|56=DTL|11=order-176|38=100|40=1|54=2|55=BAC|10=208|
20240912-17:52:39.000000000 : 8=FIX.4.2|9=106|35=D|34=208|49=OPS_CANDIDATE_6_2396|52=20240912-17:52:39.000|56=DTL|11=order-177|38=100|40=1|54=1|55=AAPL|10=042|
20240912-17:52:39.000000000 : 8=FIX.4.2|9=126|35=D|34=209|49=OPS_CANDIDATE_6_2396|52=20240912-17:52:39.000|56=DTL|11=order-178|38=100|40=2|44=101.918824426889|54=1|55=AAPL|10=026|
20240912-17:52:39.000000000 : 8=FIX.4.2|9=108|35=F|34=210|49=OPS_CANDIDATE_6_2396|52=20240912-17:52:39.000|56=DTL|11=cancel-178|41=order-113|54=2|55=AAPL|10=231|
20240912-17:52:39.000000000 : 8=FIX.4.2|9=106|35=D|34=211|49=OPS_CANDIDATE_6_2396|52=20240912-17:52:39.000|56=DTL|11=order-179|38=100|40=1|54=1|55=MSFT|10=066|
20240912-17:52:39.000000000 : 8=FIX.4.2|9=107|35=F|34=212|49=OPS_CANDIDATE_6_2396|52=20240912-17:52:39.000|56=DTL|11=cancel-179|41=order-153|54=2|55=BAC|10=149|
20240912-17:52:39.000000000 : 8=FIX.4.2|9=126|35=D|34=213|49=OPS_CANDIDATE_6_2396|52=20240912-17:52:39.000|56=DTL|11=order-180|38=100|40=2|44=107.768275395217|54=2|55=MSFT|10=042|
20240912-17:52:40.000000000 : 8=FIX.4.2|9=125|35=D|34=214|49=OPS_CANDIDATE_6_2396|52=20240912-17:52:40.000|56=DTL|11=order-181|38=100|40=2|44=131.935236632013|54=1|55=BAC|10=152|
20240912-17:52:40.000000000 : 8=FIX.4.2|9=108|35=F|34=215|49=OPS_CANDIDATE_6_2396|52=20240912-17:52:40.000|56=DTL|11=cancel-181|41=order-102|54=1|55=MSFT|10=247|
20240912-17:52:40.000000000 : 8=FIX.4.2|9=125|35=D|34=216|49=OPS_CANDIDATE_6_2396|52=20240912-17:52:40.000|56=DTL|11=order-182|38=100|40=2|44=111.134061081314|54=1|55=BAC|10=142|
20240912-17:52:40.000000000 : 8=FIX.4.2|9=106|35=D|34=217|49=OPS_CANDIDATE_6_2396|52=20240912-17:52:40.000|56=DTL|11=order-183|38=100|40=1|54=1|55=MSFT|10=059|
20240912-17:52:40.000000000 : 8=FIX.4.2|9=126|35=D|34=218|49=OPS_CANDIDATE_6_2396|52=20240912-17:52:40.000|56=DTL|11=order-184|38=100|40=2|44=112.622407532802|54=2|55=MSFT|10=018|
20240912-17:52:41.000000000 : 8=FIX.4.2|9=105|35=D|34=219|49=OPS_CANDIDATE_6_2396|52=20240912-17:52:41.000|56=DTL|11=order-185|38=100|40=1|54=2|55=BAC|10=204|
20240912-17:52:41.000000000 : 8=FIX.4.2|9=106|35=D|34=220|49=OPS_CANDIDATE_6_2396|52=20240912-17:52:41.000|56=DTL|11=order-186|38=100|40=1|54=1|55=MSFT|10=057|
20240912-17:52:41.000000000 : 8=FIX.4.2|9=105|35=D|34=221|49=OPS_CANDIDATE_6_2396|52=20240912-17:52:41.000|56=DTL|11=order-187|38=100|40=1|54=2|55=BAC|10=199|
20240912-17:52:41.000000000 : 8=FIX.4.2|9=126|35=D|34=222|49=OPS_CANDIDATE_6_2396|52=20240912-17:52:41.000|56=DTL|11=order-188|38=100|40=2|44=139.847971371451|54=1|55=MSFT|10=042|
20240912-17:52:41.000000000 : 8=FIX.4.2|9=125|35=D|34=223|49=OPS_CANDIDATE_6_2396|52=20240912-17:52:41.000|56=DTL|11=order-189|38=100|40=2|44=118.22238245408|54=2|55=MSFT|10=232|
20240912-17:52:41.000000000 : 8=FIX.4.2|9=125|35=D|34=224|49=OPS_CANDIDATE_6_2396|52=20240912-17:52:41.000|56=DTL|11=order-190|38=100|40=2|44=109.48343752574|54=2|55=MSFT|10=237|
20240912-17:52:42.000000000 : 8=FIX.4.2|9=108|35=F|34=225|49=OPS_CANDIDATE_6_2396|52=20240912-17:52:42.000|56=DTL|11=cancel-190|41=order-112|54=1|55=MSFT|10=251|
20240912-17:52:42.000000000 : 8=FIX.4.2|9=106|35=D|34=226|49=OPS_CANDIDATE_6_2396|52=20240912-17:52:42.000|56=DTL|11=order-191|38=100|40=1|54=1|55=AAPL|10=032|
20240912-17:52:42.000000000 : 8=FIX.4.2|9=126|35=D|34=227|49=OPS_CANDIDATE_6_2396|52=20240912-17:52:42.000|56=DTL|11=order-192|38=100|40=2|44=102.208724920819|54=1|55=AAPL|10=000|
20240912-17:52:42.000000000 : 8=FIX.4.2|9=106|35=D|34=228|49=OPS_CANDIDATE_6_2396|52=20240912-17:52:42.000|56=DTL|11=order-193|38=100|40=1|54=2|55=MSFT|10=065|
20240912-17:52:42.000000000 : 8=FIX.4.2|9=106|35=F|34=229|49=OPS_CANDIDATE_6_2396|52=20240912-17:52:42.000|56=DTL|11=cancel-193|41=order-39|54=1|55=BAC|10=100|
20240912-17:52:42.000000000 : 8=FIX.4.2|9=125|35=D|34=230|49=OPS_CANDIDATE_6_2396|52=20240912-17:52:42.000|56=DTL|11=order-194|38=100|40=2|44=112.489376207426|54=2|55=BAC|10=171|
20240912-17:52:43.000000000 : 8=FIX.4.2|9=126|35=D|34=231|49=OPS_CANDIDATE_6_2396|52=20240912-17:52:43.000|56=DTL|11=order-195|38=100|40=2|44=117.381499946301|54=1|55=AAPL|10=010|
20240912-17:52:43.000000000 : 8=FIX.4.2|9=105|35=D|34=232|49=OPS_CANDIDATE_6_2396|52=20240912-17:52:43.000|56=DTL|11=order-196|38=100|40=1|54=2|55=BAC|10=203|
20240912-17:52:43.000000000 : 8=FIX.4.2|9=126|35=D|34=233|49=OPS_CANDIDATE_6_2396|52=20240912-17:52:43.000|56=DTL|11=order-197|38=100|40=2|44=132.313718628688|54=1|55=AAPL|10=015|
20240912-17:52:43.000000000 : 8=FIX.4.2|9=126|35=D|34=234|49=OPS_CANDIDATE_6_2396|52=20240912-17:52:43.000|56=DTL|11=order-198|38=100|40=2|44=122.389036443796|54=1|55=AAPL|10=017|
20240912-17:52:43.000000000 : 8=FIX.4.2|9=126|35=D|34=235|49=OPS_CANDIDATE_6_2396|52=20240912-17:52:43.000|56=DTL|11=order-199|38=100|40=2|44=146.952885414631|54=2|55=MSFT|10=048|
20240912-17:52:44.000000000 : 8=FIX.4.2|9=126|35=D|34=236|49=OPS_CANDIDATE_6_2396|52=20240912-17:52:44.000|56=DTL|11=order-200|38=100|40=2|44=140.028940610492|54=1|55=MSFT|10=015|
20240912-17:52:44.000000000 : 8=FIX.4.2|9=125|35=D|34=237|49=OPS_CANDIDATE_6_2396|52=20240912-17:52:44.000|56=DTL|11=order-201|38=100|40=2|44=146.996260932298|54=1|55=BAC|10=182|
20240912-17:52:44.000000000 : 8=FIX.4.2|9=125|35=D|34=238|49=OPS_CANDIDATE_6_2396|52=20240912-17:52:44.000|56=DTL|11=order-202|38=100|40=2|44=121.659332638499|54=2|55=BAC|10=180|
20240912-17:52:44.000000000 : 8=FIX.4.2|9=105|35=D|34=239|49=OPS_CANDIDATE_6_2396|52=20240912-17:52:44.000|56=DTL|11=order-203|38=100|40=1|54=2|55=BAC|10=200|
20240912-17:52:45.000000000 : 8=FIX.4.2|9=106|35=D|34=240|49=OPS_CANDIDATE_6_2396|52=20240912-17:52:45.000|56=DTL|11=order-204|38=100|40=1|54=1|55=AAPL|10=026|
20240912-17:52:45.000000000 : 8=FIX.4.2|9=105|35=D|34=241|49=OPS_CANDIDATE_6_2396|52=20240912-17:52:45.000|56=DTL|11=order-205|38=100|40=1|54=1|55=BAC|10=195|
20240912-17:52:45.000000000 : 8=FIX.4.2|9=125|35=D|34=242|49=OPS_CANDIDATE_6_2396|52=20240912-17:52:45.000|56=DTL|11=order-206|38=100|40=2|44=143.769820560663|54=1|55=BAC|10=174|
20240912-17:52:45.000000000 : 8=FIX.4.2|9=126|35=D|34=243|49=OPS_CANDIDATE_6_2396|52=20240912-17:52:45.000|56=DTL|11=order-207|38=100|40=2|44=118.472916601794|54=2|55=MSFT|10=038|
20240912-17:52:45.000000000 : 8=FIX.4.2|9=106|35=D|34=244|49=OPS_CANDIDATE_6_2396|52=20240912-17:52:45.000|56=DTL|11=order-208|38=100|40=1|54=1|55=AAPL|10=034|
20240912-17:52:46.000000000 : 8=FIX.4.2|9=126|35=D|34=245|49=OPS_CANDIDATE_6_2396|52=20240912-17:52:46.000|56=DTL|11=order-209|38=100|40=2|44=119.412456943832|54=2|55=AAPL|10=011|
20240912-17:52:46.000000000 : 8=FIX.4.2|9=106|35=F|34=246|49=OPS_CANDIDATE_6_2396|52=20240912-17:52:46.000|56=DTL|11=cancel-209|41=order-77|54=1|55=BAC|10=103|
20240912-17:52:46.000000000 : 8=FIX.4.2|9=125|35=D|34=247|49=OPS_CANDIDATE_6_2396|52=20240912-17:52:46.000|56=DTL|11=order-210|38=100|40=2|44=139.878488920475|54=1|55=BAC|10=192|
20240912-17:52:46.000000000 : 8=FIX.4.2|9=125|35=D|34=248|49=OPS_CANDIDATE_6_2396|52=20240912-17:52:46.000|56=DTL|11=order-211|38=100|40=2|44=143.68414256102|54=2|55=MSFT|10=227|
20240912-17:52:46.000000000 : 8=FIX.4.2|9=108|35=F|34=249|49=OPS_CANDIDATE_6_2396|52=20240912-17:52:46.000|56=DTL|11=cancel-211|41=order-193|54=2|55=MSFT|10=009|
20240912-17:52:46.000000000 : 8=FIX.4.2|9=106|35=D|34=250|49=OPS_CANDIDATE_6_2396|52=20240912-17:52:46.000|56=DTL|11=order-212|38=100|40=1|54=2|55=AAPL|10=028|
20240912-17:52:46.000000000 : 8=FIX.4.2|9=108|35=F|34=251|49=OPS_CANDIDATE_6_2396|52=20240912-17:52:46.000|56=DTL|11=cancel-212|41=order-120|54=2|55=AAPL|10=221|
20240912-17:52:46.000000000 : 8=FIX.4.2|9=106|35=D|34=252|49=OPS_CANDIDATE_6_2396|52=20240912-17:52:46.000|56=DTL|11=order-213|38=100|40=1|54=2|55=MSFT|10=059|
20240912-17:52:47.000000000 : 8=FIX.4.2|9=126|35=D|34=253|49=OPS_CANDIDATE_6_2396|52=20240912-17:52:47.000|56=DTL|11=order-214|38=100|40=2|44=148.649076712502|54=1|55=AAPL|10=006|
20240912-17:52:47.000000000 : 8=FIX.4.2|9=125|35=D|34=254|49=OPS_CANDIDATE_6_2396|52=20240912-17:52:47.000|56=DTL|11=order-215|38=100|40=2|44=116.111923242504|54=1|55=BAC|10=155|
20240912-17:52:47.000000000 : 8=FIX.4.2|9=106|35=F|34=255|49=OPS_CANDIDATE_6_2396|52=20240912-17:52:47.000|56=DTL|11=cancel-215|41=order-70|54=1|55=BAC|10=094|
20240912-17:52:47.000000000 : 8=FIX.4.2|9=106|35=D|34=256|49=OPS_CANDIDATE_6_2396|52=20240912-17:52:47.000|56=DTL|11=order-216|38=100|40=1|54=1|55=MSFT|10=066|
20240912-17:52:47.000000000 : 8=FIX.4.2|9=107|35=F|34=257|49=OPS_CANDIDATE_6_2396|52=20240912-17:52:47.000|56=DTL|11=cancel-216|41=order-194|54=2|55=BAC|10=154|
20240912-17:52:47.000000000 : 8=FIX.4.2|9=105|35=D|34=258|49=OPS_CANDIDATE_6_2396|52=20240912-17:52:47.000|56=DTL|11=order-217|38=100|40=1|54=2|55=BAC|10=209|
20240912-17:52:47.000000000 : 8=FIX.4.2|9=126|35=D|34=259|49=OPS_CANDIDATE_6_2396|52=20240912-17:52:47.000|56=DTL|11=order-218|38=100|40=2|44=148.411681924367|54=2|55=MSFT|10=048|
20240912-17:52:48.000000000 : 8=FIX.4.2|9=106|35=F|34=260|49=OPS_CANDIDATE_6_2396|52=20240912-17:52:48.000|56=DTL|11=cancel-218|41=order-13|54=2|55=BAC|10=092|
20240912-17:52:48.000000000 : 8=FIX.4.2|9=126|35=D|34=261|49=OPS_CANDIDATE_6_2396|52=20240912-17:52:48.000|56=DTL|11=order-219|38=100|40=2|44=146.944466646662|54=1|55=AAPL|10=023|
20240912-17:52:48.000000000 : 8=FIX.4.2|9=105|35=D|34=262|49=OPS_CANDIDATE_6_2396|52=20240912-17:52:48.000|56=DTL|11=order-220|38=100|40=1|54=2|55=BAC|10=199|
20240912-17:52:48.000000000 : 8=FIX.4.2|9=106|35=D|34=263|49=OPS_CANDIDATE_6_2396|52=20240912-17:52:48.000|56=DTL|11=order-221|38=100|40=1|54=1|55=AAPL|10=033|
20240912-17:52:48.000000000 : 8=FIX.4.2|9=126|35=D|34=264|49=OPS_CANDIDATE_6_2396|52=20240912-17:52:48.000|56=DTL|11=order-222|38=100|40=2|44=119.285915991729|54=2|55=MSFT|10=053|
20240912-17:52:49.000000000 : 8=FIX.4.2|9=105|35=D|34=265|49=OPS_CANDIDATE_6_2396|52=20240912-17:52:49.000|56=DTL|11=order-223|38=100|40=1|54=1|55=BAC|10=205|
20240912-17:52:49.000000000 : 8=FIX.4.2|9=126|35=D|34=266|49=OPS_CANDIDATE_6_2396|52=20240912-17:52:49.000|56=DTL|11=order-224|38=100|40=2|44=101.149683902013|54=1|55=MSFT|10=027|
20240912-17:52:49.000000000 : 8=FIX.4.2|9=107|35=F|34=267|49=OPS_CANDIDATE_6_2396|52=20240912-17:52:49.000|56=DTL|11=cancel-224|41=order-36|54=2|55=MSFT|10=219|
20240912-17:52:49.000000000 : 8=FIX.4.2|9=126|35=D|34=268|49=OPS_CANDIDATE_6_2396|52=20240912-17:52:49.000|56=DTL|11=order-225|38=100|40=2|44=132.179573578011|54=2|55=AAPL|10=015|
20240912-17:52:49.000000000 : 8=FIX.4.2|9=106|35=D|34=269|49=OPS_CANDIDATE_6_2396|52=20240912-17:52:49.000|56=DTL|11=order-226|38=100|40=1|54=1|55=MSFT|10=073|
20240912-17:52:49.000000000 : 8=FIX.4.2|9=106|35=D|34=270|49=OPS_CANDIDATE_6_2396|52=20240912-17:52:49.000|56=DTL|11=order-227|38=100|40=1|54=2|55=MSFT|10=067|
20240912-17:52:49.000000000 : 8=FIX.4.2|9=126|35=D|34=271|49=OPS_CANDIDATE_6_2396|52=20240912-17:52:49.000|56=DTL|11=order-228|38=100|40=2|44=116.953367636236|54=2|55=AAPL|10=019|
20240912-17:52:50.000000000 : 8=FIX.4.2|9=106|35=D|34=272|49=OPS_CANDIDATE_6_2396|52=20240912-17:52:50.000|56=DTL|11=order-229|38=100|40=1|54=1|55=MSFT|10=062|
20240912-17:52:50.000000000 : 8=FIX.4.2|9=106|35=D|34=273|49=OPS_CANDIDATE_6_2396|52=20240912-17:52:50.000|56=DTL|11=order-230|38=100|40=1|54=1|55=MSFT|10=055|
20240912-17:52:50.000000000 : 8=FIX.4.2|9=123|35=D|34=274|49=OPS_CANDIDATE_6_2396|52=20240912-17:52:50.000|56=DTL|11=order-231|38=100|40=2|44=117.1901774136|54=2|55=BAC|10=058|
20240912-17:52:50.000000000 : 8=FIX.4.2|9=105|35=D|34=275|49=OPS_CANDIDATE_6_2396|52=20240912-17:52:50.000|56=DTL|11=order-232|38=100|40=1|54=2|55=BAC|10=199|
20240912-17:52:51.000000000 : 8=FIX.4.2|9=126|35=D|34=276|49=OPS_CANDIDATE_6_2396|52=20240912-17:52:51.000|56=DTL|11=order-233|38=100|40=2|44=100.701782535537|54=1|55=AAPL|10=255|
20240912-17:52:51.000000000 : 8=FIX.4.2|9=106|35=D|34=277|49=OPS_CANDIDATE_6_2396|52=20240912-17:52:51.000|56=DTL|11=order-234|38=100|40=1|54=1|55=MSFT|10=064|
20240912-17:52:51.000000000 : 8=FIX.4.2|9=105|35=D|34=278|49=OPS_CANDIDATE_6_2396|52=20240912-17:52:51.000|56=DTL|11=order-235|38=100|40=1|54=1|55=BAC|10=205|
20240912-17:52:51.000000000 : 8=FIX.4.2|9=106|35=F|34=279|49=OPS_CANDIDATE_6_2396|52=20240912-17:52:51.000|56=DTL|11=cancel-235|41=order-81|54=2|55=BAC|10=100|
20240912-17:52:51.000000000 : 8=FIX.4.2|9=126|35=D|34=280|49=OPS_CANDIDATE_6_2396|52=20240912-17:52:51.000|56=DTL|11=order-236|38=100|40=2|44=114.813597733706|54=2|55=MSFT|10=037|
20240912-17:52:52.000000000 : 8=FIX.4.2|9=106|35=D|34=281|49=OPS_CANDIDATE_6_2396|52=20240912-17:52:52.000|56=DTL|11=order-237|38=100|40=1|54=1|55=AAPL|10=035|
20240912-17:52:52.000000000 : 8=FIX.4.2|9=108|35=F|34=282|49=OPS_CANDIDATE_6_2396|52=20240912-17:52:52.000|56=DTL|11=cancel-237|41=order-188|54=1|55=MSFT|10=014|
20240912-17:52:52.000000000 : 8=FIX.4.2|9=125|35=D|34=283|49=OPS_CANDIDATE_6_2396|52=20240912-17:52:52.000|56=DTL|11=order-238|38=100|40=2|44=124.700002290933|54=1|55=BAC|10=158|
20240912-17:52:52.000000000 : 8=FIX.4.2|9=125|35=D|34=284|49=OPS_CANDIDATE_6_2396|52=20240912-17:52:52.000|56=DTL|11=order-239|38=100|40=2|44=116.760439564114|54=2|55=BAC|10=177|
20240912-17:52:52.000000000 : 8=FIX.4.2|9=126|35=D|34=285|49=OPS_CANDIDATE_6_2396|52=20240912-17:52:52.000|56=DTL|11=order-240|38=100|40=2|44=109.090241118753|54=1|55=MSFT|10=023|
20240912-17:52:53.000000000 : 8=FIX.4.2|9=106|35=F|34=286|49=OPS_CANDIDATE_6_2396|52=20240912-17:52:53.000|56=DTL|11=cancel-240|41=order-52|54=2|55=BAC|10=094|
20240912-17:52:53.000000000 : 8=FIX.4.2|9=106|35=D|34=287|49=OPS_CANDIDATE_6_2396|52=20240912-17:52:53.000|56=DTL|11=order-241|38=100|40=1|54=2|55=AAPL|10=038|
20240912-17:52:53.000000000 : 8=FIX.4.2|9=106|35=D|34=288|49=OPS_CANDIDATE_6_2396|52=20240912-17:52:53.000|56=DTL|11=order-242|38=100|40=1|54=2|55=AAPL|10=040|
20240912-17:52:53.000000000 : 8=FIX.4.2|9=124|35=D|34=289|49=OPS_CANDIDATE_6_2396|52=20240912-17:52:53.000|56=DTL|11=order-243|38=100|40=2|44=147.13402741441|54=2|55=BAC|10=114|
20240912-17:52:53.000000000 : 8=FIX.4.2|9=108|35=F|34=290|49=OPS_CANDIDATE_6_2396|52=20240912-17:52:53.000|56=DTL|11=cancel-243|41=order-170|54=2|55=MSFT|10=003|
20240912-17:52:53.000000000 : 8=FIX.4.2|9=126|35=D|34=291|49=OPS_CANDIDATE_6_2396|52=20240912-17:52:53.000|56=DTL|11=order-244|38=100|40=2|44=138.397556994711|54=2|55=AAPL|10=025|
20240912-17:52:54.000000000 : 8=FIX.4.2|9=108|35=F|34=292|49=OPS_CANDIDATE_6_2396|52=20240912-17:52:54.000|56=DTL|11=cancel-244|41=order-156|54=1|55=AAPL|10=238|
20240912-17:52:54.000000000 : 8=FIX.4.2|9=125|35=D|34=293|49=OPS_CANDIDATE_6_2396|52=20240912-17:52:54.000|56=DTL|11=order-245|38=100|40=2|44=103.17552177993|54=2|55=MSFT|10=246|
20240912-17:52:54.000000000 : 8=FIX.4.2|9=106|35=D|34=294|49=OPS_CANDIDATE_6_2396|52=20240912-17:52:54.000|56=DTL|11=order-246|38=100|40=1|54=1|55=MSFT|10=069|
20240912-17:52:54.000000000 : 8=FIX.4.2|9=106|35=D|34=295|49=OPS_CANDIDATE_6_2396|52=20240912-17:52:54.000|56=DTL|11=order-247|38=100|40=1|54=2|55=MSFT|10=072|
20240912-17:52:54.000000000 : 8=FIX.4.2|9=106|35=D|34=296|49=OPS_CANDIDATE_6_2396|52=20240912-17:52:54.000|56=DTL|11=order-248|38=100|40=1|54=2|55=AAPL|10=046|
20240912-17:52:54.000000000 : 8=FIX.4.2|9=107|35=F|34=297|49=OPS_CANDIDATE_6_2396|52=20240912-17:52:54.000|56=DTL|11=cancel-248|41=order-63|54=2|55=MSFT|10=224|
20240912-17:52:54.000000000 : 8=FIX.4.2|9=126|35=D|34=298|49=OPS_CANDIDATE_6_2396|52=20240912-17:52:54.000|56=DTL|11=order-249|38=100|40=2|44=102.885355723971|54=1|55=AAPL|10=025|
20240912-17:52:55.000000000 : 8=FIX.4.2|9=126|35=D|34=299|49=OPS_CANDIDATE_6_2396|52=20240912-17:52:55.000|56=DTL|11=order-250|38=100|40=2|44=145.115711972382|54=1|55=MSFT|10=038|
20240912-17:52:55.000000000 : 8=FIX.4.2|9=125|35=D|34=300|49=OPS_CANDIDATE_6_2396|52=20240912-17:52:55.000|56=DTL|11=order-251|38=100|40=2|44=115.40765562115|54=1|55=MSFT|10=221|
20240912-17:52:55.000000000 : 8=FIX.4.2|9=106|35=D|34=301|49=OPS_CANDIDATE_6_2396|52=20240912-17:52:55.000|56=DTL|11=order-252|38=100|40=1|54=1|55=AAPL|10=028|
20240912-17:52:55.000000000 : 8=FIX.4.2|9=108|35=F|34=302|49=OPS_CANDIDATE_6_2396|52=20240912-17:52:55.000|56=DTL|11=cancel-252|41=order-216|54=1|55=MSFT|10=255|
20240912-17:52:55.000000000 : 8=FIX.4.2|9=106|35=D|34=303|49=OPS_CANDIDATE_6_2396|52=20240912-17:52:55.000|56=DTL|11=order-253|38=100|40=1|54=2|55=AAPL|10=032|
20240912-17:52:55.000000000 : 8=FIX.4.2|9=107|35=F|34=304|49=OPS_CANDIDATE_6_2396|52=20240912-17:52:55.000|56=DTL|11=cancel-253|41=order-185|54=2|55=BAC|10=147|
20240912-17:52:55.000000000 : 8=FIX.4.2|9=106|35=D|34=305|49=OPS_CANDIDATE_6_2396|52=20240912-17:52:55.000|56=DTL|11=order-254|38=100|40=1|54=2|55=AAPL|10=035|
20240912-17:52:56.000000000 : 8=FIX.4.2|9=125|35=D|34=306|49=OPS_CANDIDATE_6_2396|52=20240912-17:52:56.000|56=DTL|11=order-255|38=100|40=2|44=114.744516044561|54=1|55=BAC|10=168|
20240912-17:52:56.000000000 : 8=FIX.4.2|9=125|35=D|34=307|49=OPS_CANDIDATE_6_2396|52=20240912-17:52:56.000|56=DTL|11=order-256|38=100|40=2|44=132.256762775655|54=1|55=BAC|10=186|
20240912-17:52:56.000000000 : 8=FIX.4.2|9=126|35=D|34=308|49=OPS_CANDIDATE_6_2396|52=20240912-17:52:56.000|56=DTL|11=order-257|38=100|40=2|44=133.068369652725|54=1|55=MSFT|10=046|
20240912-17:52:56.000000000 : 8=FIX.4.2|9=126|35=D|34=309|49=OPS_CANDIDATE_6_2396|52=20240912-17:52:56.000|56=DTL|11=order-258|38=100|40=2|44=115.898460611456|54=2|55=AAPL|10=020|
20240912-17:52:56.000000000 : 8=FIX.4.2|9=126|35=D|34=310|49=OPS_CANDIDATE_6_2396|52=20240912-17:52:56.000|56=DTL|11=order-259|38=100|40=2|44=149.231541746574|54=1|55=MSFT|10=038|
20240912-17:52:56.000000000 : 8=FIX.4.2|9=126|35=D|34=311|49=OPS_CANDIDATE_6_2396|52=20240912-17:52:56.000|56=DTL|11=order-260|38=100|40=2|44=105.847954678655|54=1|55=MSFT|10=048|
20240912-17:52:57.000000000 : 8=FIX.4.2|9=107|35=F|34=312|49=OPS_CANDIDATE_6_2396|52=20240912-17:52:57.000|56=DTL|11=cancel-260|41=order-64|54=2|55=AAPL|10=182|
20240912-17:52:57.000000000 : 8=FIX.4.2|9=105|35=D|34=313|49=OPS_CANDIDATE_6_2396|52=20240912-17:52:57.000|56=DTL|11=order-261|38=100|40=1|54=1|55=BAC|10=200|
20240912-17:52:57.000000000 : 8=FIX.4.2|9=107|35=F|34=314|49=OPS_CANDIDATE_6_2396|52=20240912-17:52:57.000|56=DTL|11=cancel-261|41=order-26|54=1|55=MSFT|10=210|
20240912-17:52:57.000000000 : 8=FIX.4.2|9=105|35=D|34=315|49=OPS_CANDIDATE_6_2396|52=20240912-17:52:57.000|56=DTL|11=order-262|38=100|40=1|54=2|55=BAC|10=204|
20240912-17:52:57.000000000 : 8=FIX.4.2|9=108|35=F|34=316|49=OPS_CANDIDATE_6_2396|52=20240912-17:52:57.000|56=DTL|11=cancel-262|41=order-142|54=1|55=MSFT|10=005|
20240912-17:52:57.000000000 : 8=FIX.4.2|9=126|35=D|34=317|49=OPS_CANDIDATE_6_2396|52=20240912-17:52:57.000|56=DTL|11=order-263|38=100|40=2|44=106.528636608821|54=1|55=MSFT|10=040|
20240912-17:52:57.000000000 : 8=FIX.4.2|9=106|35=D|34=318|49=OPS_CANDIDATE_6_2396|52=20240912-17:52:57.000|56=DTL|11=order-264|38=100|40=1|54=1|55=MSFT|10=069|
20240912-17:52:58.000000000 : 8=FIX.4.2|9=108|35=F|34=319|49=OPS_CANDIDATE_6_2396|52=20240912-17:52:58.000|56=DTL|11=cancel-264|41=order-252|54=1|55=AAPL|10=241|
20240912-17:52:58.000000000 : 8=FIX.4.2|9=126|35=D|34=320|49=OPS_CANDIDATE_6_2396|52=20240912-17:52:58.000|56=DTL|11=order-265|38=100|40=2|44=135.571606349717|54=2|55=AAPL|10=013|
20240912-17:52:58.000000000 : 8=FIX.4.2|9=106|35=D|34=321|49=OPS_CANDIDATE_6_2396|52=20240912-17:52:58.000|56=DTL|11=order-266|38=100|40=1|54=2|55=MSFT|10=067|
20240912-17:52:58.000000000 : 8=FIX.4.2|9=105|35=D|34=322|49=OPS_CANDIDATE_6_2396|52=20240912-17:52:58.000|56=DTL|11=order-267|38=100|40=1|54=1|55=BAC|10=207|
20240912-17:52:58.000000000 : 8=FIX.4.2|9=125|35=D|34=323|49=OPS_CANDIDATE_6_2396|52=20240912-17:52:58.000|56=DTL|11=order-268|38=100|40=2|44=111.067135824024|54=2|55=BAC|10=166|
20240912-17:52:59.000000000 : 8=FIX.4.2|9=125|35=D|34=324|49=OPS_CANDIDATE_6_2396|52=20240912-17:52:59.000|56=DTL|11=order-269|38=100|40=2|44=148.712171464263|54=2|55=BAC|10=181|
20240912-17:52:59.000000000 : 8=FIX.4.2|9=106|35=D|34=325|49=OPS_CANDIDATE_6_2396|52=20240912-17:52:59.000|56=DTL|11=order-270|38=100|40=1|54=2|55=AAPL|10=039|
20240912-17:52:59.000000000 : 8=FIX.4.2|9=126|35=D|34=326|49=OPS_CANDIDATE_6_2396|52=20240912-17:52:59.000|56=DTL|11=order-271|38=100|40=2|44=103.278623851498|54=1|55=MSFT|10=046|
20240912-17:52:59.000000000 : 8=FIX.4.2|9=125|35=D|34=327|49=OPS_CANDIDATE_6_2396|52=20240912-17:52:59.000|56=DTL|11=order-272|38=100|40=2|44=122.635092525898|54=2|55=BAC|10=188|
20240912-17:52:59.000000000 : 8=FIX.4.2|9=108|35=F|34=328|49=OPS_CANDIDATE_6_2396|52=20240912-17:52:59.000|56=DTL|11=cancel-272|41=order-251|54=1|55=MSFT|10=012|
20240912-17:52:59.000000000 : 8=FIX.4.2|9=126|35=D|34=329|49=OPS_CANDIDATE_6_2396|52=20240912-17:52:59.000|56=DTL|11=order-273|38=100|40=2|44=134.613345247679|54=1|55=AAPL|10=021|
20240912-17:53:00.000000000 : 8=FIX.4.2|9=126|35=D|34=330|49=OPS_CANDIDATE_6_2396|52=20240912-17:53:00.000|56=DTL|11=order-274|38=100|40=2|44=146.414180097069|54=2|55=AAPL|10=253|
20240912-17:53:00.000000000 : 8=FIX.4.2|9=125|35=D|34=331|49=OPS_CANDIDATE_6_2396|52=20240912-17:53:00.000|56=DTL|11=order-275|38=100|40=2|44=147.132733827406|54=1|55=BAC|10=163|
20240912-17:53:00.000000000 : 8=FIX.4.2|9=125|35=D|34=332|49=OPS_CANDIDATE_6_2396|52=20240912-17:53:00.000|56=DTL|11=order-276|38=100|40=2|44=141.248403704722|54=2|55=BAC|10=157|
20240912-17:53:00.000000000 : 8=FIX.4.2|9=125|35=D|34=333|49=OPS_CANDIDATE_6_2396|52=20240912-17:53:00.000|56=DTL|11=order-277|38=100|40=2|44=121.940919335665|54=1|55=BAC|10=173|
20240912-17:53:00.000000000 : 8=FIX.4.2|9=126|35=D|34=334|49=OPS_CANDIDATE_6_2396|52=20240912-17:53:00.000|56=DTL|11=order-278|38=100|40=2|44=123.669093376904|54=2|55=AAPL|10=013|
20240912-17:53:01.000000000 : 8=FIX.4.2|9=105|35=D|34=335|49=OPS_CANDIDATE_6_2396|52=20240912-17:53:01.000|56=DTL|11=order-279|38=100|40=1|54=2|55=BAC|10=204|
20240912-17:53:01.000000000 : 8=FIX.4.2|9=106|35=D|34=336|49=OPS_CANDIDATE_6_2396|52=20240912-17:53:01.000|56=DTL|11=order-280|38=100|40=1|54=1|55=AAPL|10=029|
20240912-17:53:01.000000000 : 8=FIX.4.2|9=106|35=D|34=337|49=OPS_CANDIDATE_6_2396|52=20240912-17:53:01.000|56=DTL|11=order-281|38=100|40=1|54=1|55=MSFT|10=059|
20240912-17:53:01.000000000 : 8=FIX.4.2|9=125|35=D|34=338|49=OPS_CANDIDATE_6_2396|52=20240912-17:53:01.000|56=DTL|11=order-282|38=100|40=2|44=139.432474859822|54=2|55=BAC|10=183|
20240912-17:53:01.000000000 : 8=FIX.4.2|9=106|35=D|34=339|49=OPS_CANDIDATE_6_2396|52=20240912-17:53:01.000|56=DTL|11=order-283|38=100|40=1|54=1|55=AAPL|10=035|
20240912-17:53:02.000000000 : 8=FIX.4.2|9=108|35=F|34=340|49=OPS_CANDIDATE_6_2396|52=20240912-17:53:02.000|56=DTL|11=cancel-283|41=order-147|54=1|55=MSFT|10=001|
20240912-17:53:02.000000000 : 8=FIX.4.2|9=105|35=D|34=341|49=OPS_CANDIDATE_6_2396|52=20240912-17:53:02.000|56=DTL|11=order-284|38=100|40=1|54=2|55=BAC|10=198|
20240912-17:53:02.000000000 : 8=FIX.4.2|9=126|35=D|34=342|49=OPS_CANDIDATE_6_2396|52=20240912-17:53:02.000|56=DTL|11=order-285|38=100|40=2|44=144.823338095941|54=1|55=AAPL|10=007|
20240912-17:53:02.000000000 : 8=FIX.4.2|9=106|35=D|34=343|49=OPS_CANDIDATE_6_2396|52=20240912-17:53:02.000|56=DTL|11=order-286|38=100|40=1|54=1|55=AAPL|10=034|
20240912-17:53:02.000000000 : 8=FIX.4.2|9=105|35=D|34=344|49=OPS_CANDIDATE_6_2396|52=20240912-17:53:02.000|56=DTL|11=order-287|38=100|40=1|54=1|55=BAC|10=203|
20240912-17:53:03.000000000 : 8=FIX.4.2|9=106|35=D|34=345|49=OPS_CANDIDATE_6_2396|52=20240912-17:53:03.000|56=DTL|11=order-288|38=100|40=1|54=1|55=MSFT|10=067|
20240912-17:53:03.000000000 : 8=FIX.4.2|9=126|35=D|34=346|49=OPS_CANDIDATE_6_2396|52=20240912-17:53:03.000|56=DTL|11=order-289|38=100|40=2|44=101.762251739024|54=1|55=MSFT|10=030|
20240912-17:53:03.000000000 : 8=FIX.4.2|9=106|35=D|34=347|49=OPS_CANDIDATE_6_2396|52=20240912-17:53:03.000|56=DTL|11=order-290|38=100|40=1|54=2|55=AAPL|10=035|
20240912-17:53:03.000000000 : 8=FIX.4.2|9=107|35=F|34=348|49=OPS_CANDIDATE_6_2396|52=20240912-17:53:03.000|56=DTL|11=cancel-290|41=order-164|54=1|55=BAC|10=146|
20240912-17:53:03.000000000 : 8=FIX.4.2|9=125|35=D|34=349|49=OPS_CANDIDATE_6_2396|52=20240912-17:53:03.000|56=DTL|11=order-291|38=100|40=2|44=123.668443610882|54=2|55=BAC|10=178|
20240912-17:53:03.000000000 : 8=FIX.4.2|9=105|35=D|34=350|49=OPS_CANDIDATE_6_2396|52=20240912-17:53:03.000|56=DTL|11=order-292|38=100|40=1|54=1|55=BAC|10=197|
20240912-17:53:04.000000000 : 8=FIX.4.2|9=126|35=D|34=351|49=OPS_CANDIDATE_6_2396|52=20240912-17:53:04.000|56=DTL|11=order-293|38=100|40=2|44=147.298481305441|54=1|55=MSFT|10=033|
20240912-17:53:04.000000000 : 8=FIX.4.2|9=125|35=D|34=352|49=OPS_CANDIDATE_6_2396|52=20240912-17:53:04.000|56=DTL|11=order-294|38=100|40=2|44=124.123529120103|54=2|55=BAC|10=150|
20240912-17:53:04.000000000 : 8=FIX.4.2|9=105|35=D|34=353|49=OPS_CANDIDATE_6_2396|52=20240912-17:53:04.000|56=DTL|11=order-295|38=100|40=1|54=2|55=BAC|10=205|
20240912-17:53:04.000000000 : 8=FIX.4.2|9=108|35=F|34=354|49=OPS_CANDIDATE_6_2396|52=20240912-17:53:04.000|56=DTL|11=cancel-295|41=order-204|54=1|55=AAPL|10=233|
20240912-17:53:04.000000000 : 8=FIX.4.2|9=106|35=D|34=355|49=OPS_CANDIDATE_6_2396|52=20240912-17:53:04.000|56=DTL|11=order-296|38=100|40=1|54=2|55=AAPL|10=041|
20240912-17:53:04.000000000 : 8=FIX.4.2|9=107|35=F|34=356|49=OPS_CANDIDATE_6_2396|52=20240912-17:53:04.000|56=DTL|11=cancel-296|41=order-29|54=2|55=MSFT|10=221|
20240912-17:53:04.000000000 : 8=FIX.4.2|9=105|35=D|34=357|49=OPS_CANDIDATE_6_2396|52=20240912-17:53:04.000|56=DTL|11=order-297|38=100|40=1|54=1|55=BAC|10=210|
20240912-17:53:05.000000000 : 8=FIX.4.2|9=108|35=F|34=358|49=OPS_CANDIDATE_6_2396|52=20240912-17:53:05.000|56=DTL|11=cancel-297|41=order-123|54=2|55=MSFT|10=013|
20240912-17:53:05.000000000 : 8=FIX.4.2|9=106|35=D|34=359|49=OPS_CANDIDATE_6_2396|52=20240912-17:53:05.000|56=DTL|11=order-298|38=100|40=1|54=2|55=MSFT|10=076|
20240912-17:53:05.000000000 : 8=FIX.4.2|9=106|35=F|34=360|49=OPS_CANDIDATE_6_2396|52=20240912-17:53:05.000|56=DTL|11=cancel-298|41=order-58|54=2|55=BAC|10=104|
20240912-17:53:05.000000000 : 8=FIX.4.2|9=105|35=D|34=361|49=OPS_CANDIDATE_6_2396|52=20240912-17:53:05.000|56=DTL|11=order-299|38=100|40=1|54=2|55=BAC|10=209|
20240912-17:53:05.000000000 : 8=FIX.4.2|9=105|35=D|34=362|49=OPS_CANDIDATE_6_2396|52=20240912-17:53:05.000|56=DTL|11=order-300|38=100|40=1|54=1|55=BAC|10=192|
20240912-17:53:05.000000000 : 8=FIX.4.2|9=126|35=D|34=363|49=OPS_CANDIDATE_6_2396|52=20240912-17:53:05.000|56=DTL|11=order-301|38=100|40=2|44=148.699926090005|54=1|55=AAPL|10=006|
20240912-17:53:05.000000000 : 8=FIX.4.2|9=126|35=D|34=364|49=OPS_CANDIDATE_6_2396|52=20240912-17:53:05.000|56=DTL|11=order-302|38=100|40=2|44=135.483188713639|54=1|55=AAPL|10=010|
20240912-17:53:06.000000000 : 8=FIX.4.2|9=126|35=D|34=365|49=OPS_CANDIDATE_6_2396|52=20240912-17:53:06.000|56=DTL|11=order-303|38=100|40=2|44=125.318183639442|54=2|55=MSFT|10=032|
20240912-17:53:06.000000000 : 8=FIX.4.2|9=106|35=D|34=366|49=OPS_CANDIDATE_6_2396|52=20240912-17:53:06.000|56=DTL|11=order-304|38=100|40=1|54=1|55=MSFT|10=062|
20240912-17:53:06.000000000 : 8=FIX.4.2|9=106|35=D|34=367|49=OPS_CANDIDATE_6_2396|52=20240912-17:53:06.000|56=DTL|11=order-305|38=100|40=1|54=1|55=AAPL|10=036|
20240912-17:53:06.000000000 : 8=FIX.4.2|9=125|35=D|34=368|49=OPS_CANDIDATE_6_2396|52=20240912-17:53:06.000|56=DTL|11=order-306|38=100|40=2|44=129.184196981713|54=1|55=BAC|10=186|
20240912-17:53:06.000000000 : 8=FIX.4.2|9=106|35=D|34=369|49=OPS_CANDIDATE_6_2396|52=20240912-17:53:06.000|56=DTL|11=order-307|38=100|40=1|54=1|55=MSFT|10=068|
20240912-17:53:07.000000000 : 8=FIX.4.2|9=108|35=F|34=370|49=OPS_CANDIDATE_6_2396|52=20240912-17:53:07.000|56=DTL|11=cancel-307|41=order-249|54=1|55=AAPL|10=237|
20240912-17:53:07.000000000 : 8=FIX.4.2|9=106|35=D|34=371|49=OPS_CANDIDATE_6_2396|52=20240912-17:53:07.000|56=DTL|11=order-308|38=100|40=1|54=2|55=AAPL|10=036|
20240912-17:53:07.000000000 : 8=FIX.4.2|9=105|35=D|34=372|49=OPS_CANDIDATE_6_2396|52=20240912-17:53:07.000|56=DTL|11=order-309|38=100|40=1|54=1|55=BAC|10=204|
20240912-17:53:07.000000000 : 8=FIX.4.2|9=106|35=D|34=373|49=OPS_CANDIDATE_6_2396|52=20240912-17:53:07.000|56=DTL|11=order-310|38=100|40=1|54=2|55=MSFT|10=059|
20240912-17:53:07.000000000 : 8=FIX.4.2|9=125|35=D|34=374|49=OPS_CANDIDATE_6_2396|52=20240912-17:53:07.000|56=DTL|11=order-311|38=100|40=2|44=145.395487597821|54=1|55=BAC|10=188|
20240912-17:53:08.000000000 : 8=FIX.4.2|9=108|35=F|34=375|49=OPS_CANDIDATE_6_2396|52=20240912-17:53:08.000|56=DTL|11=cancel-311|41=order-177|54=1|55=AAPL|10=238|
20240912-17:53:08.000000000 : 8=FIX.4.2|9=106|35=D|34=376|49=OPS_CANDIDATE_6_2396|52=20240912-17:53:08.000|56=DTL|11=order-312|38=100|40=1|54=1|55=MSFT|10=064|
20240912-17:53:08.000000000 : 8=FIX.4.2|9=126|35=D|34=377|49=OPS_CANDIDATE_6_2396|52=20240912-17:53:08.000|56=DTL|11=order-313|38=100|40=2|44=107.933494904743|54=1|55=MSFT|10=044|
20240912-17:53:08.000000000 : 8=FIX.4.2|9=105|35=D|34=378|49=OPS_CANDIDATE_6_2396|52=20240912-17:53:08.000|56=DTL|11=order-314|38=100|40=1|54=1|55=BAC|10=207|
20240912-17:53:08.000000000 : 8=FIX.4.2|9=126|35=D|34=379|49=OPS_CANDIDATE_6_2396|52=20240912-17:53:08.000|56=DTL|11=order-315|38=100|40=2|44=133.678704175203|54=2|55=AAPL|10=011|
20240912-17:53:08.000000000 : 8=FIX.4.2|9=106|35=D|34=380|49=OPS_CANDIDATE_6_2396|52=20240912-17:53:08.000|56=DTL|11=order-316|38=100|40=1|54=1|55=MSFT|10=063|
20240912-17:53:09.000000000 : 8=FIX.4.2|9=106|35=D|34=381|49=OPS_CANDIDATE_6_2396|52=20240912-17:53:09.000|56=DTL|11=order-317|38=100|40=1|54=1|55=AAPL|10=038|
20240912-17:53:09.000000000 : 8=FIX.4.2|9=106|35=D|34=382|49=OPS_CANDIDATE_6_2396|52=20240912-17:53:09.000|56=DTL|11=order-318|38=100|40=1|54=2|55=AAPL|10=041|
20240912-17:53:09.000000000 : 8=FIX.4.2|9=125|35=D|34=383|49=OPS_CANDIDATE_6_2396|52=20240912-17:53:09.000|56=DTL|11=order-319|38=100|40=2|44=116.883249118907|54=2|55=BAC|10=189|
20240912-17:53:09.000000000 : 8=FIX.4.2|9=126|35=D|34=384|49=OPS_CANDIDATE_6_2396|52=20240912-17:53:09.000|56=DTL|11=order-320|38=100|40=2|44=104.750667692695|54=1|55=AAPL|10=019|
20240912-17:53:09.000000000 : 8=FIX.4.2|9=108|35=F|34=385|49=OPS_CANDIDATE_6_2396|52=20240912-17:53:09.000|56=DTL|11=cancel-320|41=order-316|54=1|55=MSFT|10=007|
20240912-17:53:09.000000000 : 8=FIX.4.2|9=126|35=D|34=386|49=OPS_CANDIDATE_6_2396|52=20240912-17:53:09.000|56=DTL|11=order-321|38=100|40=2|44=145.796135713984|54=2|55=AAPL|10=023|
20240912-17:53:10.000000000 : 8=FIX.4.2|9=126|35=D|34=387|49=OPS_CANDIDATE_6_2396|52=20240912-17:53:10.000|56=DTL|11=order-322|38=100|40=2|44=143.087994670116|54=2|55=AAPL|10=010|
20240912-17:53:10.000000000 : 8=FIX.4.2|9=106|35=D|34=388|49=OPS_CANDIDATE_6_2396|52=20240912-17:53:10.000|56=DTL|11=order-323|38=100|40=1|54=1|55=MSFT|10=062|
20240912-17:53:10.000000000 : 8=FIX.4.2|9=126|35=D|34=389|49=OPS_CANDIDATE_6_2396|52=20240912-17:53:10.000|56=DTL|11=order-324|38=100|40=2|44=145.225751323886|54=2|55=MSFT|10=038|
20240912-17:53:10.000000000 : 8=FIX.4.2|9=126|35=D|34=390|49=OPS_CANDIDATE_6_2396|52=20240912-17:53:10.000|56=DTL|11=order-325|38=100|40=2|44=111.579395353151|54=2|55=AAPL|10=000|
20240912-17:53:10.000000000 : 8=FIX.4.2|9=126|35=D|34=391|49=OPS_CANDIDATE_6_2396|52=20240912-17:53:10.000|56=DTL|11=order-326|38=100|40=2|44=138.896967214956|54=1|55=AAPL|10=026|
20240912-17:53:11.000000000 : 8=FIX.4.2|9=105|35=D|34=392|49=OPS_CANDIDATE_6_2396|52=20240912-17:53:11.000|56=DTL|11=order-327|38=100|40=1|54=1|55=BAC|10=201|
20240912-17:53:11.000000000 : 8=FIX.4.2|9=106|35=D|34=393|49=OPS_CANDIDATE_6_2396|52=20240912-17:53:11.000|56=DTL|11=order-328|38=100|40=1|54=2|55=AAPL|10=037|
20240912-17:53:11.000000000 : 8=FIX.4.2|9=125|35=D|34=394|49=OPS_CANDIDATE_6_2396|52=20240912-17:53:11.000|56=DTL|11=order-329|38=100|40=2|44=113.256453180015|54=2|55=BAC|10=162|
20240912-17:53:11.000000000 : 8=FIX.4.2|9=105|35=D|34=395|49=OPS_CANDIDATE_6_2396|52=20240912-17:53:11.000|56=DTL|11=order-330|38=100|40=1|54=2|55=BAC|10=199|
20240912-17:53:11.000000000 : 8=FIX.4.2|9=106|35=D|34=396|49=OPS_CANDIDATE_6_2396|52=20240912-17:53:11.000|56=DTL|11=order-331|38=100|40=1|54=2|55=MSFT|10=062|
20240912-17:53:12.000000000 : 8=FIX.4.2|9=106|35=D|34=397|49=OPS_CANDIDATE_6_2396|52=20240912-17:53:12.000|56=DTL|11=order-332|38=100|40=1|54=2|55=MSFT|10=065|
20240912-17:53:12.000000000 : 8=FIX.4.2|9=106|35=D|34=398|49=OPS_CANDIDATE_6_2396|52=20240912-17:53:12.000|56=DTL|11=order-333|38=100|40=1|54=2|55=AAPL|10=039|
20240912-17:53:12.000000000 : 8=FIX.4.2|9=125|35=D|34=399|49=OPS_CANDIDATE_6_2396|52=20240912-17:53:12.000|56=DTL|11=order-334|38=100|40=2|44=124.44037849137|54=2|55=MSFT|10=244|
20240912-17:53:12.000000000 : 8=FIX.4.2|9=126|35=D|34=400|49=OPS_CANDIDATE_6_2396|52=20240912-17:53:12.000|56=DTL|11=order-335|38=100|40=2|44=138.267808826408|54=2|55=AAPL|10=007|
20240912-17:53:12.000000000 : 8=FIX.4.2|9=126|35=D|34=401|49=OPS_CANDIDATE_6_2396|52=20240912-17:53:12.000|56=DTL|11=order-336|38=100|40=2|44=140.697856150558|54=2|55=MSFT|10=036|
20240912-17:53:13.000000000 : 8=FIX.4.2|9=126|35=D|34=402|49=OPS_CANDIDATE_6_2396|52=20240912-17:53:13.000|56=DTL|11=order-337|38=100|40=2|44=134.725009878416|54=2|55=AAPL|10=006|
20240912-17:53:13.000000000 : 8=FIX.4.2|9=106|35=D|34=403|49=OPS_CANDIDATE_6_2396|52=20240912-17:53:13.000|56=DTL|11=order-338|38=100|40=1|54=2|55=AAPL|10=032|
20240912-17:53:13.000000000 : 8=FIX.4.2|9=106|35=D|34=404|49=OPS_CANDIDATE_6_2396|52=20240912-17:53:13.000|56=DTL|11=order-339|38=100|40=1|54=2|55=MSFT|10=062|
20240912-17:53:13.000000000 : 8=FIX.4.2|9=108|35=F|34=405|49=OPS_CANDIDATE_6_2396|52=20240912-17:53:13.000|56=DTL|11=cancel-339|41=order-166|54=1|55=AAPL|10=236|
20240912-17:53:13.000000000 : 8=FIX.4.2|9=125|35=D|34=406|49=OPS_CANDIDATE_6_2396|52=20240912-17:53:13.000|56=DTL|11=order-340|38=100|40=2|44=137.175025222386|54=2|55=BAC|10=160|
20240912-17:53:14.000000000 : 8=FIX.4.2|9=106|35=D|34=407|49=OPS_CANDIDATE_6_2396|52=20240912-17:53:14.000|56=DTL|11=order-341|38=100|40=1|54=1|55=MSFT|10=058|
20240912-17:53:14.000000000 : 8=FIX.4.2|9=126|35=D|34=408|49=OPS_CANDIDATE_6_2396|52=20240912-17:53:14.000|56=DTL|11=order-342|38=100|40=2|44=149.479196553594|54=2|55=MSFT|10=053|
20240912-17:53:14.000000000 : 8=FIX.4.2|9=126|35=D|34=409|49=OPS_CANDIDATE_6_2396|52=20240912-17:53:14.000|56=DTL|11=order-343|38=100|40=2|44=105.726938933342|54=1|55=MSFT|10=038|
20240912-17:53:14.000000000 : 8=FIX.4.2|9=125|35=D|34=410|49=OPS_CANDIDATE_6_2396|52=20240912-17:53:14.000|56=DTL|11=order-344|38=100|40=2|44=129.213902125787|54=2|55=BAC|10=165|
20240912-17:53:14.000000000 : 8=FIX.4.2|9=106|35=D|34=411|49=OPS_CANDIDATE_6_2396|52=20240912-17:53:14.000|56=DTL|11=order-345|38=100|40=1|54=1|55=MSFT|10=057|
20240912-17:53:14.000000000 : 8=FIX.4.2|9=126|35=D|34=412|49=OPS_CANDIDATE_6_2396|52=20240912-17:53:14.000|56=DTL|11=order-346|38=100|40=2|44=117.086977633302|54=1|55=AAPL|10=005|
20240912-17:53:15.000000000 : 8=FIX.4.2|9=105|35=D|34=413|49=OPS_CANDIDATE_6_2396|52=20240912-17:53:15.000|56=DTL|11=order-347|38=100|40=1|54=2|55=BAC|10=202|
20240912-17:53:15.000000000 : 8=FIX.4.2|9=105|35=D|34=414|49=OPS_CANDIDATE_6_2396|52=20240912-17:53:15.000|56=DTL|11=order-348|38=100|40=1|54=2|55=BAC|10=204|
20240912-17:53:15.000000000 : 8=FIX.4.2|9=125|35=D|34=415|49=OPS_CANDIDATE_6_2396|52=20240912-17:53:15.000|56=DTL|11=order-349|38=100|40=2|44=140.056004282155|54=1|55=BAC|10=159|
20240912-17:53:15.000000000 : 8=FIX.4.2|9=105|35=D|34=416|49=OPS_CANDIDATE_6_2396|52=20240912-17:53:15.000|56=DTL|11=order-350|38=100|40=1|54=2|55=BAC|10=199|
20240912-17:53:15.000000000 : 8=FIX.4.2|9=106|35=D|34=417|49=OPS_CANDIDATE_6_2396|52=20240912-17:53:15.000|56=DTL|11=order-351|38=100|40=1|54=1|55=AAPL|10=033|
20240912-17:53:15.000000000 : 8=FIX.4.2|9=108|35=F|34=418|49=OPS_CANDIDATE_6_2396|52=20240912-17:53:15.000|56=DTL|11=cancel-351|41=order-129|54=1|55=MSFT|10=007|
20240912-17:53:15.000000000 : 8=FIX.4.2|9=105|35=D|34=419|49=OPS_CANDIDATE_6_2396|52=20240912-17:53:15.000|56=DTL|11=order-352|38=100|40=1|54=2|55=BAC|10=204|
20240912-17:53:16.000000000 : 8=FIX.4.2|9=107|35=F|34=420|49=OPS_CANDIDATE_6_2396|52=20240912-17:53:16.000|56=DTL|11=cancel-352|41=order-133|54=1|55=BAC|10=136|
20240912-17:53:16.000000000 : 8=FIX.4.2|9=125|35=D|34=421|49=OPS_CANDIDATE_6_2396|52=20240912-17:53:16.000|56=DTL|11=order-353|38=100|40=2|44=127.266608065616|54=1|55=BAC|10=171|
20240912-17:53:16.000000000 : 8=FIX.4.2|9=106|35=D|34=422|49=OPS_CANDIDATE_6_2396|52=20240912-17:53:16.000|56=DTL|11=order-354|38=100|40=1|54=2|55=MSFT|10=062|
20240912-17:53:16.000000000 : 8=FIX.4.2|9=126|35=D|34=423|49=OPS_CANDIDATE_6_2396|52=20240912-17:53:16.000|56=DTL|11=order-355|38=100|40=2|44=122.573563060126|54=2|55=MSFT|10=024|
20240912-17:53:16.000000000 : 8=FIX.4.2|9=106|35=D|34=424|49=OPS_CANDIDATE_6_2396|52=20240912-17:53:16.000|56=DTL|11=order-356|38=100|40=1|54=2|55=MSFT|10=066|
20240912-17:53:17.000000000 : 8=FIX.4.2|9=108|35=F|34=425|49=OPS_CANDIDATE_6_2396|52=20240912-17:53:17.000|56=DTL|11=cancel-356|41=order-315|54=2|55=AAPL|10=238|
20240912-17:53:17.000000000 : 8=FIX.4.2|9=106|35=D|34=426|49=OPS_CANDIDATE_6_2396|52=20240912-17:53:17.000|56=DTL|11=order-357|38=100|40=1|54=2|55=MSFT|10=070|
20240912-17:53:17.000000000 : 8=FIX.4.2|9=126|35=D|34=427|49=OPS_CANDIDATE_6_2396|52=20240912-17:53:17.000|56=DTL|11=order-358|38=100|40=2|44=104.234885722287|54=2|55=MSFT|10=046|
20240912-17:53:17.000000000 : 8=FIX.4.2|9=108|35=F|34=428|49=OPS_CANDIDATE_6_2396|52=20240912-17:53:17.000|56=DTL|11=cancel-358|41=order-158|54=2|55=MSFT|10=020|
20240912-17:53:17.000000000 : 8=FIX.4.2|9=125|35=D|34=429|49=OPS_CANDIDATE_6_2396|52=20240912-17:53:17.000|56=DTL|11=order-359|38=100|40=2|44=117.503768806858|54=2|55=BAC|10=198|
20240912-17:53:17.000000000 : 8=FIX.4.2|9=106|35=D|34=430|49=OPS_CANDIDATE_6_2396|52=20240912-17:53:17.000|56=DTL|11=order-360|38=100|40=1|54=1|55=AAPL|10=030|
20240912-17:53:17.000000000 : 8=FIX.4.2|9=106|35=D|34=431|49=OPS_CANDIDATE_6_2396|52=20240912-17:53:17.000|56=DTL|11=order-361|38=100|40=1|54=2|55=MSFT|10=061|
20240912-17:53:18.000000000 : 8=FIX.4.2|9=125|35=D|34=432|49=OPS_CANDIDATE_6_2396|52=20240912-17:53:18.000|56=DTL|11=order-362|38=100|40=2|44=144.37018779169|54=1|55=MSFT|10=248|
20240912-17:53:18.000000000 : 8=FIX.4.2|9=124|35=D|34=433|49=OPS_CANDIDATE_6_2396|52=20240912-17:53:18.000|56=DTL|11=order-363|38=100|40=2|44=110.19778738487|54=1|55=BAC|10=137|
20240912-17:53:18.000000000 : 8=FIX.4.2|9=106|35=D|34=434|49=OPS_CANDIDATE_6_2396|52=20240912-17:53:18.000|56=DTL|11=order-364|38=100|40=1|54=2|55=AAPL|10=040|
20240912-17:53:18.000000000 : 8=FIX.4.2|9=106|35=D|34=435|49=OPS_CANDIDATE_6_2396|52=20240912-17:53:18.000|56=DTL|11=order-365|38=100|40=1|54=2|55=MSFT|10=070|
20240912-17:53:18.000000000 : 8=FIX.4.2|9=125|35=D|34=436|49=OPS_CANDIDATE_6_2396|52=20240912-17:53:18.000|56=DTL|11=order-366|38=100|40=2|44=100.30763447003|54=2|55=AAPL|10=200|
20240912-17:53:19.000000000 : 8=FIX.4.2|9=106|35=F|34=437|49=OPS_CANDIDATE_6_2396|52=20240912-17:53:19.000|56=DTL|11=cancel-366|41=order-8|54=2|55=AAPL|10=145|
20240912-17:53:19.000000000 : 8=FIX.4.2|9=105|35=D|34=438|49=OPS_CANDIDATE_6_2396|52=20240912-17:53:19.000|56=DTL|11=order-367|38=100|40=1|54=2|55=BAC|10=215|
20240912-17:53:19.000000000 : 8=FIX.4.2|9=106|35=D|34=439|49=OPS_CANDIDATE_6_2396|52=20240912-17:53:19.000|56=DTL|11=order-368|38=100|40=1|54=2|55=MSFT|10=078|
20240912-17:53:19.000000000 : 8=FIX.4.2|9=126|35=D|34=440|49=OPS_CANDIDATE_6_2396|52=20240912-17:53:19.000|56=DTL|11=order-369|38=100|40=2|44=123.997811824083|54=1|55=AAPL|10=019|
20240912-17:53:19.000000000 : 8=FIX.4.2|9=105|35=D|34=441|49=OPS_CANDIDATE_6_2396|52=20240912-17:53:19.000|56=DTL|11=order-370|38=100|40=1|54=1|55=BAC|10=202|
20240912-17:53:19.000000000 : 8=FIX.4.2|9=125|35=D|34=442|49=OPS_CANDIDATE_6_2396|52=20240912-17:53:19.000|56=DTL|11=order-371|38=100|40=2|44=126.435415323547|54=2|55=BAC|10=171|
20240912-17:53:20.000000000 : 8=FIX.4.2|9=126|35=D|34=443|49=OPS_CANDIDATE_6_2396|52=20240912-17:53:20.000|56=DTL|11=order-372|38=100|40=2|44=106.230991274494|54=1|55=AAPL|10=003|
20240912-17:53:20.000000000 : 8=FIX.4.2|9=106|35=D|34=444|49=OPS_CANDIDATE_6_2396|52=20240912-17:53:20.000|56=DTL|11=order-373|38=100|40=1|54=2|55=MSFT|10=062|
20240912-17:53:20.000000000 : 8=FIX.4.2|9=106|35=D|34=445|49=OPS_CANDIDATE_6_2396|52=20240912-17:53:20.000|56=DTL|11=order-374|38=100|40=1|54=1|55=AAPL|10=035|
20240912-17:53:21.000000000 : 8=FIX.4.2|9=125|35=D|34=446|49=OPS_CANDIDATE_6_2396|52=20240912-17:53:21.000|56=DTL|11=order-375|38=100|40=2|44=129.238464691882|54=1|55=BAC|10=189|
20240912-17:53:21.000000000 : 8=FIX.4.2|9=125|35=D|34=447|49=OPS_CANDIDATE_6_2396|52=20240912-17:53:21.000|56=DTL|11=order-376|38=100|40=2|44=116.274981911406|54=1|55=BAC|10=178|
20240912-17:53:21.000000000 : 8=FIX.4.2|9=106|35=D|34=448|49=OPS_CANDIDATE_6_2396|52=20240912-17:53:21.000|56=DTL|11=order-377|38=100|40=1|54=1|55=AAPL|10=042|
20240912-17:53:21.000000000 : 8=FIX.4.2|9=107|35=F|34=449|49=OPS_CANDIDATE_6_2396|52=20240912-17:53:21.000|56=DTL|11=cancel-377|41=order-96|54=1|55=MSFT|10=226|
20240912-17:53:21.000000000 : 8=FIX.4.2|9=125|35=D|34=450|49=OPS_CANDIDATE_6_2396|52=20240912-17:53:21.000|56=DTL|11=order-378|38=100|40=2|44=121.256636660737|54=2|55=BAC|10=176|
20240912-17:53:21.000000000 : 8=FIX.4.2|9=106|35=D|34=451|49=OPS_CANDIDATE_6_2396|52=20240912-17:53:21.000|56=DTL|11=order-379|38=100|40=1|54=2|55=AAPL|10=039|
20240912-17:53:22.000000000 : 8=FIX.4.2|9=125|35=D|34=452|49=OPS_CANDIDATE_6_2396|52=20240912-17:53:22.000|56=DTL|11=order-380|38=100|40=2|44=106.876970972369|54=2|55=BAC|10=191|
20240912-17:53:22.000000000 : 8=FIX.4.2|9=125|35=D|34=453|49=OPS_CANDIDATE_6_2396|52=20240912-17:53:22.000|56=DTL|11=order-381|38=100|40=2|44=103.996095338786|54=1|55=BAC|10=189|
20240912-17:53:22.000000000 : 8=FIX.4.2|9=126|35=D|34=454|49=OPS_CANDIDATE_6_2396|52=20240912-17:53:22.000|56=DTL|11=order-382|38=100|40=2|44=147.750539666048|54=1|55=MSFT|10=046|
20240912-17:53:22.000000000 : 8=FIX.4.2|9=126|35=D|34=455|49=OPS_CANDIDATE_6_2396|52=20240912-17:53:22.000|56=DTL|11=order-383|38=100|40=2|44=130.187248601462|54=1|55=AAPL|10=002|
20240912-17:53:22.000000000 : 8=FIX.4.2|9=106|35=D|34=456|49=OPS_CANDIDATE_6_2396|52=20240912-17:53:22.000|56=DTL|11=order-384|38=100|40=1|54=2|55=MSFT|10=069|
20240912-17:53:22.000000000 : 8=FIX.4.2|9=126|35=D|34=457|49=OPS_CANDIDATE_6_2396|52=20240912-17:53:22.000|56=DTL|11=order-385|38=100|40=2|44=140.365804076176|54=1|55=MSFT|10=039|
20240912-17:53:23.000000000 : 8=FIX.4.2|9=105|35=D|34=458|49=OPS_CANDIDATE_6_2396|52=20240912-17:53:23.000|56=DTL|11=order-386|38=100|40=1|54=2|55=BAC|10=213|
20240912-17:53:23.000000000 : 8=FIX.4.2|9=126|35=D|34=459|49=OPS_CANDIDATE_6_2396|52=20240912-17:53:23.000|56=DTL|11=order-387|38=100|40=2|44=130.458466471408|54=1|55=MSFT|10=047|
20240912-17:53:23.000000000 : 8=FIX.4.2|9=126|35=D|34=460|49=OPS_CANDIDATE_6_2396|52=20240912-17:53:23.000|56=DTL|11=order-388|38=100|40=2|44=133.800026903459|54=2|55=AAPL|10=005|
20240912-17:53:23.000000000 : 8=FIX.4.2|9=108|35=F|34=461|49=OPS_CANDIDATE_6_2396|52=20240912-17:53:23.000|56=DTL|11=cancel-388|41=order-358|54=2|55=MSFT|10=019|
20240912-17:53:23.000000000 : 8=FIX.4.2|9=126|35=D|34=462|49=OPS_CANDIDATE_6_2396|52=20240912-17:53:23.000|56=DTL|11=order-389|38=100|40=2|44=119.993800492531|54=1|55=AAPL|10=018|
20240912-17:53:24.000000000 : 8=FIX.4.2|9=106|35=D|34=463|49=OPS_CANDIDATE_6_2396|52=20240912-17:53:24.000|56=DTL|11=order-390|38=100|40=1|54=1|55=AAPL|10=037|
20240912-17:53:24.000000000 : 8=FIX.4.2|9=107|35=F|34=464|49=OPS_CANDIDATE_6_2396|52=20240912-17:53:24.000|56=DTL|11=cancel-390|41=order-330|54=2|55=BAC|10=145|
20240912-17:53:24.000000000 : 8=FIX.4.2|9=106|35=D|34=465|49=OPS_CANDIDATE_6_2396|52=20240912-17:53:24.000|56=DTL|11=order-391|38=100|40=1|54=1|55=AAPL|10=040|
20240912-17:53:24.000000000 : 8=FIX.4.2|9=105|35=D|34=466|49=OPS_CANDIDATE_6_2396|52=20240912-17:53:24.000|56=DTL|11=order-392|38=100|40=1|54=1|55=BAC|10=209|
20240912-17:53:24.000000000 : 8=FIX.4.2|9=106|35=D|34=467|49=OPS_CANDIDATE_6_2396|52=20240912-17:53:24.000|56=DTL|11=order-393|38=100|40=1|54=2|55=AAPL|10=045|
20240912-17:53:25.000000000 : 8=FIX.4.2|9=106|35=F|34=468|49=OPS_CANDIDATE_6_2396|52=20240912-17:53:25.000|56=DTL|11=cancel-393|41=order-53|54=1|55=BAC|10=105|
20240912-17:53:25.000000000 : 8=FIX.4.2|9=125|35=D|34=469|49=OPS_CANDIDATE_6_2396|52=20240912-17:53:25.000|56=DTL|11=order-394|38=100|40=2|44=118.070854803039|54=2|55=BAC|10=184|
20240912-17:53:25.000000000 : 8=FIX.4.2|9=126|35=D|34=470|49=OPS_CANDIDATE_6_2396|52=20240912-17:53:25.000|56=DTL|11=order-395|38=100|40=2|44=146.160226035548|54=2|55=MSFT|10=034|
20240912-17:53:25.000000000 : 8=FIX.4.2|9=106|35=D|34=471|49=OPS_CANDIDATE_6_2396|52=20240912-17:53:25.000|56=DTL|11=order-396|38=100|40=1|54=2|55=AAPL|10=044|
20240912-17:53:25.000000000 : 8=FIX.4.2|9=125|35=D|34=472|49=OPS_CANDIDATE_6_2396|52=20240912-17:53:25.000|56=DTL|11=order-397|38=100|40=2|44=134.32511627262|54=1|55=MSFT|10=236|
20240912-17:53:26.000000000 : 8=FIX.4.2|9=125|35=D|34=473|49=OPS_CANDIDATE_6_2396|52=20240912-17:53:26.000|56=DTL|11=order-398|38=100|40=2|44=102.147407554013|54=1|55=BAC|10=170|
20240912-17:53:26.000000000 : 8=FIX.4.2|9=106|35=D|34=474|49=OPS_CANDIDATE_6_2396|52=20240912-17:53:26.000|56=DTL|11=order-399|38=100|40=1|54=1|55=AAPL|10=050|
20240912-17:53:26.000000000 : 8=FIX.4.2|9=123|35=D|34=475|49=OPS_CANDIDATE_6_2396|52=20240912-17:53:26.000|56=DTL|11=order-400|38=100|40=2|44=115.531049883|54=1|55=AAPL|10=102|
20240912-17:53:26.000000000 : 8=FIX.4.2|9=126|35=D|34=476|49=OPS_CANDIDATE_6_2396|52=20240912-17:53:26.000|56=DTL|11=order-401|38=100|40=2|44=107.036860428433|54=1|55=AAPL|10=002|
20240912-17:53:27.000000000 : 8=FIX.4.2|9=106|35=D|34=477|49=OPS_CANDIDATE_6_2396|52=20240912-17:53:27.000|56=DTL|11=order-402|38=100|40=1|54=1|55=MSFT|10=067|
20240912-17:53:27.000000000 : 8=FIX.4.2|9=126|35=D|34=478|49=OPS_CANDIDATE_6_2396|52=20240912-17:53:27.000|56=DTL|11=order-403|38=100|40=2|44=119.468826891726|54=2|55=AAPL|10=031|
20240912-17:53:27.000000000 : 8=FIX.4.2|9=107|35=F|34=479|49=OPS_CANDIDATE_6_2396|52=20240912-17:53:27.000|56=DTL|11=cancel-403|41=order-267|54=1|55=BAC|10=157|
20240912-17:53:27.000000000 : 8=FIX.4.2|9=125|35=D|34=480|49=OPS_CANDIDATE_6_2396|52=20240912-17:53:27.000|56=DTL|11=order-404|38=100|40=2|44=146.513354221569|54=1|55=BAC|10=170|
20240912-17:53:27.000000000 : 8=FIX.4.2|9=108|35=F|34=481|49=OPS_CANDIDATE_6_2396|52=20240912-17:53:27.000|56=DTL|11=cancel-404|41=order-274|54=2|55=AAPL|10=239|
20240912-17:53:27.000000000 : 8=FIX.4.2|9=106|35=D|34=482|49=OPS_CANDIDATE_6_2396|52=20240912-17:53:27.000|56=DTL|11=order-405|38=100|40=1|54=1|55=AAPL|10=038|
20240912-17:53:27.000000000 : 8=FIX.4.2|9=105|35=D|34=483|49=OPS_CANDIDATE_6_2396|52=20240912-17:53:27.000|56=DTL|11=order-406|38=100|40=1|54=2|55=BAC|10=208|
20240912-17:53:28.000000000 : 8=FIX.4.2|9=108|35=F|34=484|49=OPS_CANDIDATE_6_2396|52=20240912-17:53:28.000|56=DTL|11=cancel-406|41=order-132|54=2|55=MSFT|10=010|
20240912-17:53:28.000000000 : 8=FIX.4.2|9=105|35=D|34=485|49=OPS_CANDIDATE_6_2396|52=20240912-17:53:28.000|56=DTL|11=order-407|38=100|40=1|54=1|55=BAC|10=211|
20240912-17:53:28.000000000 : 8=FIX.4.2|9=106|35=D|34=486|49=OPS_CANDIDATE_6_2396|52=20240912-17:53:28.000|56=DTL|11=order-408|38=100|40=1|54=2|55=AAPL|10=047|
20240912-17:53:28.000000000 : 8=FIX.4.2|9=106|35=D|34=487|49=OPS_CANDIDATE_6_2396|52=20240912-17:53:28.000|56=DTL|11=order-409|38=100|40=1|54=2|55=AAPL|10=049|
20240912-17:53:28.000000000 : 8=FIX.4.2|9=107|35=F|34=488|49=OPS_CANDIDATE_6_2396|52=20240912-17:53:28.000|56=DTL|11=cancel-409|41=order-187|54=2|55=BAC|10=166|
20240912-17:53:28.000000000 : 8=FIX.4.2|9=106|35=D|34=489|49=OPS_CANDIDATE_6_2396|52=20240912-17:53:28.000|56=DTL|11=order-410|38=100|40=1|54=2|55=MSFT|10=071|
20240912-17:53:29.000000000 : 8=FIX.4.2|9=106|35=D|34=490|49=OPS_CANDIDATE_6_2396|52=20240912-17:53:29.000|56=DTL|11=order-411|38=100|40=1|54=1|55=MSFT|10=064|
20240912-17:53:29.000000000 : 8=FIX.4.2|9=126|35=D|34=491|49=OPS_CANDIDATE_6_2396|52=20240912-17:53:29.000|56=DTL|11=order-412|38=100|40=2|44=114.545634400821|54=1|55=MSFT|10=025|
20240912-17:53:29.000000000 : 8=FIX.4.2|9=126|35=D|34=492|49=OPS_CANDIDATE_6_2396|52=20240912-17:53:29.000|56=DTL|11=order-413|38=100|40=2|44=126.034866144347|54=1|55=MSFT|10=038|
20240912-17:53:29.000000000 : 8=FIX.4.2|9=125|35=D|34=493|49=OPS_CANDIDATE_6_2396|52=20240912-17:53:29.000|56=DTL|11=order-414|38=100|40=2|44=127.305450870663|54=2|55=BAC|10=178|
20240912-17:53:29.000000000 : 8=FIX.4.2|9=105|35=D|34=494|49=OPS_CANDIDATE_6_2396|52=20240912-17:53:29.000|56=DTL|11=order-415|38=100|40=1|54=2|55=BAC|10=212|
20240912-17:53:30.000000000 : 8=FIX.4.2|9=126|35=D|34=495|49=OPS_CANDIDATE_6_2396|52=20240912-17:53:30.000|56=DTL|11=order-416|38=100|40=2|44=128.850228569958|54=1|55=AAPL|10=027|
20240912-17:53:30.000000000 : 8=FIX.4.2|9=105|35=D|34=496|49=OPS_CANDIDATE_6_2396|52=20240912-17:53:30.000|56=DTL|11=order-417|38=100|40=1|54=1|55=BAC|10=207|
20240912-17:53:30.000000000 : 8=FIX.4.2|9=125|35=D|34=497|49=OPS_CANDIDATE_6_2396|52=20240912-17:53:30.000|56=DTL|11=order-418|38=100|40=2|44=144.712355974743|54=2|55=BAC|10=187|
20240912-17:53:30.000000000 : 8=FIX.4.2|9=107|35=F|34=498|49=OPS_CANDIDATE_6_2396|52=20240912-17:53:30.000|56=DTL|11=cancel-418|41=order-295|54=2|55=BAC|10=160|
20240912-17:53:30.000000000 : 8=FIX.4.2|9=106|35=D|34=499|49=OPS_CANDIDATE_6_2396|52=20240912-17:53:30.000|56=DTL|11=order-419|38=100|40=1|54=1|55=AAPL|10=045|
20240912-17:53:31.000000000 : 8=FIX.4.2|9=107|35=F|34=500|49=OPS_CANDIDATE_6_2396|52=20240912-17:53:31.000|56=DTL|11=cancel-419|41=order-300|54=1|55=BAC|10=132|
20240912-17:53:31.000000000 : 8=FIX.4.2|9=106|35=D|34=501|49=OPS_CANDIDATE_6_2396|52=20240912-17:53:31.000|56=DTL|11=order-420|38=100|40=1|54=1|55=AAPL|10=022|
20240912-17:53:31.000000000 : 8=FIX.4.2|9=106|35=D|34=502|49=OPS_CANDIDATE_6_2396|52=20240912-17:53:31.000|56=DTL|11=order-421|38=100|40=1|54=1|55=MSFT|10=052|
20240912-17:53:31.000000000 : 8=FIX.4.2|9=106|35=D|34=503|49=OPS_CANDIDATE_6_2396|52=20240912-17:53:31.000|56=DTL|11=order-422|38=100|40=1|54=2|55=MSFT|10=055|
20240912-17:53:31.000000000 : 8=FIX.4.2|9=106|35=D|34=504|49=OPS_CANDIDATE_6_2396|52=20240912-17:53:31.000|56=DTL|11=order-423|38=100|40=1|54=1|55=AAPL|10=028|
20240912-17:53:32.000000000 : 8=FIX.4.2|9=126|35=D|34=505|49=OPS_CANDIDATE_6_2396|52=20240912-17:53:32.000|56=DTL|11=order-424|38=100|40=2|44=123.990825932054|54=1|55=MSFT|10=032|
20240912-17:53:32.000000000 : 8=FIX.4.2|9=105|35=D|34=506|49=OPS_CANDIDATE_6_2396|52=20240912-17:53:32.000|56=DTL|11=order-425|38=100|40=1|54=1|55=BAC|10=200|
20240912-17:53:32.000000000 : 8=FIX.4.2|9=108|35=F|34=507|49=OPS_CANDIDATE_6_2396|52=20240912-17:53:32.000|56=DTL|11=cancel-425|41=order-308|54=2|55=AAPL|10=235|
20240912-17:53:32.000000000 : 8=FIX.4.2|9=126|35=D|34=508|49=OPS_CANDIDATE_6_2396|52=20240912-17:53:32.000|56=DTL|11=order-426|38=100|40=2|44=120.569007999535|54=2|55=MSFT|10=046|
20240912-17:53:32.000000000 : 8=FIX.4.2|9=106|35=D|34=509|49=OPS_CANDIDATE_6_2396|52=20240912-17:53:32.000|56=DTL|11=order-427|38=100|40=1|54=2|55=MSFT|10=067|
20240912-17:53:32.000000000 : 8=FIX.4.2|9=108|35=F|34=510|49=OPS_CANDIDATE_6_2396|52=20240912-17:53:32.000|56=DTL|11=cancel-427|41=order-362|54=1|55=MSFT|10=002|
20240912-17:53:32.000000000 : 8=FIX.4.2|9=105|35=D|34=511|49=OPS_CANDIDATE_6_2396|52=20240912-17:53:32.000|56=DTL|11=order-428|38=100|40=1|54=2|55=BAC|10=200|
20240912-17:53:32.000000000 : 8=FIX.4.2|9=105|35=D|34=512|49=OPS_CANDIDATE_6_2396|52=20240912-17:53:32.000|56=DTL|11=order-429|38=100|40=1|54=1|55=BAC|10=201|
20240912-17:53:33.000000000 : 8=FIX.4.2|9=106|35=D|34=513|49=OPS_CANDIDATE_6_2396|52=20240912-17:53:33.000|56=DTL|11=order-430|38=100|40=1|54=1|55=AAPL|10=028|
20240912-17:53:33.000000000 : 8=FIX.4.2|9=106|35=D|34=514|49=OPS_CANDIDATE_6_2396|52=20240912-17:53:33.000|56=DTL|11=order-431|38=100|40=1|54=2|55=AAPL|10=031|
20240912-17:53:33.000000000 : 8=FIX.4.2|9=126|35=D|34=515|49=OPS_CANDIDATE_6_2396|52=20240912-17:53:33.000|56=DTL|11=order-432|38=100|40=2|44=124.698025931667|54=1|55=AAPL|10=012|
20240912-17:53:33.000000000 : 8=FIX.4.2|9=126|35=D|34=516|49=OPS_CANDIDATE_6_2396|52=20240912-17:53:33.000|56=DTL|11=order-433|38=100|40=2|44=112.031513914256|54=1|55=AAPL|10=245|
20240912-17:53:33.000000000 : 8=FIX.4.2|9=125|35=D|34=517|49=OPS_CANDIDATE_6_2396|52=20240912-17:53:33.000|56=DTL|11=order-434|38=100|40=2|44=139.799506044837|54=1|55=BAC|10=189|
20240912-17:53:34.000000000 : 8=FIX.4.2|9=106|35=D|34=518|49=OPS_CANDIDATE_6_2396|52=20240912-17:53:34.000|56=DTL|11=order-435|38=100|40=1|54=2|55=MSFT|10=068|
20240912-17:53:34.000000000 : 8=FIX.4.2|9=126|35=D|34=519|49=OPS_CANDIDATE_6_2396|52=20240912-17:53:34.000|56=DTL|11=order-436|38=100|40=2|44=102.523471678636|54=1|55=MSFT|10=041|
20240912-17:53:34.000000000 : 8=FIX.4.2|9=106|35=D|34=520|49=OPS_CANDIDATE_6_2396|52=20240912-17:53:34.000|56=DTL|11=order-437|38=100|40=1|54=1|55=MSFT|10=062|
20240912-17:53:34.000000000 : 8=FIX.4.2|9=126|35=D|34=521|49=OPS_CANDIDATE_6_2396|52=20240912-17:53:34.000|56=DTL|11=order-438|38=100|40=2|44=106.850560182188|54=1|55=AAPL|10=006|
20240912-17:53:34.000000000 : 8=FIX.4.2|9=126|35=D|34=522|49=OPS_CANDIDATE_6_2396|52=20240912-17:53:34.000|56=DTL|11=order-439|38=100|40=2|44=143.252342155464|54=2|55=MSFT|10=029|
20240912-17:53:35.000000000 : 8=FIX.4.2|9=126|35=D|34=523|49=OPS_CANDIDATE_6_2396|52=20240912-17:53:35.000|56=DTL|11=order-440|38=100|40=2|44=127.182214207129|54=1|55=AAPL|10=248|
20240912-17:53:35.000000000 : 8=FIX.4.2|9=108|35=F|34=524|49=OPS_CANDIDATE_6_2396|52=20240912-17:53:35.000|56=DTL|11=cancel-440|41=order-435|54=2|55=MSFT|10=007|
20240912-17:53:35.000000000 : 8=FIX.4.2|9=106|35=D|34=525|49=OPS_CANDIDATE_6_2396|52=20240912-17:53:35.000|56=DTL|11=order-441|38=100|40=1|54=1|55=MSFT|10=063|
20240912-17:53:35.000000000 : 8=FIX.4.2|9=105|35=D|34=526|49=OPS_CANDIDATE_6_2396|52=20240912-17:53:35.000|56=DTL|11=order-442|38=100|40=1|54=2|55=BAC|10=205|
20240912-17:53:35.000000000 : 8=FIX.4.2|9=126|35=D|34=527|49=OPS_CANDIDATE_6_2396|52=20240912-17:53:35.000|56=DTL|11=order-443|38=100|40=2|44=114.025868023567|54=2|55=MSFT|10=037|
20240912-17:53:36.000000000 : 8=FIX.4.2|9=108|35=F|34=528|49=OPS_CANDIDATE_6_2396|52=20240912-17:53:36.000|56=DTL|11=cancel-443|41=order-131|54=2|55=MSFT|10=008|
20240912-17:53:36.000000000 : 8=FIX.4.2|9=106|35=D|34=529|49=OPS_CANDIDATE_6_2396|52=20240912-17:53:36.000|56=DTL|11=order-444|38=100|40=1|54=1|55=MSFT|10=071|
20240912-17:53:36.000000000 : 8=FIX.4.2|9=125|35=D|34=530|49=OPS_CANDIDATE_6_2396|52=20240912-17:53:36.000|56=DTL|11=order-445|38=100|40=2|44=148.00228091314|54=2|55=AAPL|10=198|
20240912-17:53:36.000000000 : 8=FIX.4.2|9=126|35=D|34=531|49=OPS_CANDIDATE_6_2396|52=20240912-17:53:36.000|56=DTL|11=order-446|38=100|40=2|44=140.257006025673|54=1|55=AAPL|10=253|
20240912-17:53:36.000000000 : 8=FIX.4.2|9=108|35=F|34=532|49=OPS_CANDIDATE_6_2396|52=20240912-17:53:36.000|56=DTL|11=cancel-446|41=order-438|54=1|55=AAPL|10=243|
20240912-17:53:36.000000000 : 8=FIX.4.2|9=126|35=D|34=533|49=OPS_CANDIDATE_6_2396|52=20240912-17:53:36.000|56=DTL|11=order-447|38=100|40=2|44=124.495587061325|54=1|55=AAPL|10=014|
20240912-17:53:36.000000000 : 8=FIX.4.2|9=106|35=D|34=534|49=OPS_CANDIDATE_6_2396|52=20240912-17:53:36.000|56=DTL|11=order-448|38=100|40=1|54=1|55=AAPL|10=043|
20240912-17:53:37.000000000 : 8=FIX.4.2|9=126|35=D|34=535|49=OPS_CANDIDATE_6_2396|52=20240912-17:53:37.000|56=DTL|11=order-449|38=100|40=2|44=106.855350369947|54=1|55=AAPL|10=028|
20240912-17:53:37.000000000 : 8=FIX.4.2|9=108|35=F|34=536|49=OPS_CANDIDATE_6_2396|52=20240912-17:53:37.000|56=DTL|11=cancel-449|41=order-437|54=1|55=MSFT|10=022|
20240912-17:53:37.000000000 : 8=FIX.4.2|9=125|35=D|34=537|49=OPS_CANDIDATE_6_2396|52=20240912-17:53:37.000|56=DTL|11=order-450|38=100|40=2|44=142.82415047174|54=1|55=MSFT|10=236|
20240912-17:53:37.000000000 : 8=FIX.4.2|9=126|35=D|34=538|49=OPS_CANDIDATE_6_2396|52=20240912-17:53:37.000|56=DTL|11=order-451|38=100|40=2|44=120.792227955778|54=2|55=AAPL|10=027|
20240912-17:53:37.000000000 : 8=FIX.4.2|9=126|35=D|34=539|49=OPS_CANDIDATE_6_2396|52=20240912-17:53:37.000|56=DTL|11=order-452|38=100|40=2|44=122.122624947083|54=2|55=AAPL|10=009|
20240912-17:53:38.000000000 : 8=FIX.4.2|9=105|35=D|34=540|49=OPS_CANDIDATE_6_2396|52=20240912-17:53:38.000|56=DTL|11=order-453|38=100|40=1|54=1|55=BAC|10=205|
20240912-17:53:38.000000000 : 8=FIX.4.2|9=125|35=D|34=541|49=OPS_CANDIDATE_6_2396|52=20240912-17:53:38.000|56=DTL|11=order-454|38=100|40=2|44=141.311285513106|54=2|55=BAC|10=161|
20240912-17:53:38.000000000 : 8=FIX.4.2|9=126|35=D|34=542|49=OPS_CANDIDATE_6_2396|52=20240912-17:53:38.000|56=DTL|11=order-455|38=100|40=2|44=149.556037444151|54=1|55=AAPL|10=012|
20240912-17:53:38.000000000 : 8=FIX.4.2|9=105|35=D|34=543|49=OPS_CANDIDATE_6_2396|52=20240912-17:53:38.000|56=DTL|11=order-456|38=100|40=1|54=2|55=BAC|10=212|
20240912-17:53:39.000000000 : 8=FIX.4.2|9=107|35=F|34=544|49=OPS_CANDIDATE_6_2396|52=20240912-17:53:39.000|56=DTL|11=cancel-456|41=order-182|54=1|55=BAC|10=157|
20240912-17:53:39.000000000 : 8=FIX.4.2|9=125|35=D|34=545|49=OPS_CANDIDATE_6_2396|52=20240912-17:53:39.000|56=DTL|11=order-457|38=100|40=2|44=128.047522103506|54=2|55=BAC|10=173|
20240912-17:53:39.000000000 : 8=FIX.4.2|9=108|35=F|34=546|49=OPS_CANDIDATE_6_2396|52=20240912-17:53:39.000|56=DTL|11=cancel-457|41=order-264|54=1|55=MSFT|10=022|
20240912-17:53:39.000000000 : 8=FIX.4.2|9=125|35=D|34=547|49=OPS_CANDIDATE_6_2396|52=20240912-17:53:39.000|56=DTL|11=order-458|38=100|40=2|44=135.393339283234|54=1|55=BAC|10=190|
20240912-17:53:39.000000000 : 8=FIX.4.2|9=105|35=D|34=548|49=OPS_CANDIDATE_6_2396|52=20240912-17:53:39.000|56=DTL|11=order-459|38=100|40=1|54=2|55=BAC|10=221|
20240912-17:53:39.000000000 : 8=FIX.4.2|9=106|35=D|34=549|49=OPS_CANDIDATE_6_2396|52=20240912-17:53:39.000|56=DTL|11=order-460|38=100|40=1|54=2|55=MSFT|10=075|
20240912-17:53:39.000000000 : 8=FIX.4.2|9=106|35=D|34=550|49=OPS_CANDIDATE_6_2396|52=20240912-17:53:39.000|56=DTL|11=order-461|38=100|40=1|54=2|55=AAPL|10=040|
20240912-17:53:40.000000000 : 8=FIX.4.2|9=126|35=D|34=551|49=OPS_CANDIDATE_6_2396|52=20240912-17:53:40.000|56=DTL|11=order-462|38=100|40=2|44=109.088244591152|54=1|55=MSFT|10=031|
20240912-17:53:40.000000000 : 8=FIX.4.2|9=107|35=F|34=552|49=OPS_CANDIDATE_6_2396|52=20240912-17:53:40.000|56=DTL|11=cancel-462|41=order-12|54=1|55=MSFT|10=205|
20240912-17:53:40.000000000 : 8=FIX.4.2|9=126|35=D|34=553|49=OPS_CANDIDATE_6_2396|52=20240912-17:53:40.000|56=DTL|11=order-463|38=100|40=2|44=134.483234665681|54=1|55=MSFT|10=039|
20240912-17:53:40.000000000 : 8=FIX.4.2|9=106|35=D|34=554|49=OPS_CANDIDATE_6_2396|52=20240912-17:53:40.000|56=DTL|11=order-464|38=100|40=1|54=1|55=AAPL|10=038|
20240912-17:53:40.000000000 : 8=FIX.4.2|9=106|35=D|34=555|49=OPS_CANDIDATE_6_2396|52=20240912-17:53:40.000|56=DTL|11=order-465|38=100|40=1|54=1|55=MSFT|10=068|
20240912-17:53:40.000000000 : 8=FIX.4.2|9=106|35=D|34=556|49=OPS_CANDIDATE_6_2396|52=20240912-17:53:40.000|56=DTL|11=order-466|38=100|40=1|54=1|55=MSFT|10=070|
20240912-17:53:41.000000000 : 8=FIX.4.2|9=107|35=F|34=557|49=OPS_CANDIDATE_6_2396|52=20240912-17:53:41.000|56=DTL|11=cancel-466|41=order-127|54=1|55=BAC|10=154|
20240912-17:53:41.000000000 : 8=FIX.4.2|9=105|35=D|34=558|49=OPS_CANDIDATE_6_2396|52=20240912-17:53:41.000|56=DTL|11=order-467|38=100|40=1|54=1|55=BAC|10=213|
20240912-17:53:41.000000000 : 8=FIX.4.2|9=106|35=D|34=559|49=OPS_CANDIDATE_6_2396|52=20240912-17:53:41.000|56=DTL|11=order-468|38=100|40=1|54=1|55=MSFT|10=076|
20240912-17:53:41.000000000 : 8=FIX.4.2|9=126|35=D|34=560|49=OPS_CANDIDATE_6_2396|52=20240912-17:53:41.000|56=DTL|11=order-469|38=100|40=2|44=122.656295173831|54=1|55=AAPL|10=013|
20240912-17:53:41.000000000 : 8=FIX.4.2|9=105|35=D|34=561|49=OPS_CANDIDATE_6_2396|52=20240912-17:53:41.000|56=DTL|11=order-470|38=100|40=1|54=2|55=BAC|10=202|
20240912-17:53:41.000000000 : 8=FIX.4.2|9=105|35=D|34=562|49=OPS_CANDIDATE_6_2396|52=20240912-17:53:41.000|56=DTL|11=order-471|38=100|40=1|54=2|55=BAC|10=204|
20240912-17:53:42.000000000 : 8=FIX.4.2|9=106|35=D|34=563|49=OPS_CANDIDATE_6_2396|52=20240912-17:53:42.000|56=DTL|11=order-472|38=100|40=1|54=1|55=AAPL|10=039|
20240912-17:53:42.000000000 : 8=FIX.4.2|9=125|35=D|34=564|49=OPS_CANDIDATE_6_2396|52=20240912-17:53:42.000|56=DTL|11=order-473|38=100|40=2|44=124.05749644318|54=1|55=AAPL|10=217|
20240912-17:53:42.000000000 : 8=FIX.4.2|9=107|35=F|34=565|49=OPS_CANDIDATE_6_2396|52=20240912-17:53:42.000|56=DTL|11=cancel-473|41=order-28|54=1|55=AAPL|10=192|
20240912-17:53:42.000000000 : 8=FIX.4.2|9=106|35=D|34=566|49=OPS_CANDIDATE_6_2396|52=20240912-17:53:42.000|56=DTL|11=order-474|38=100|40=1|54=2|55=AAPL|10=045|
20240912-17:53:42.000000000 : 8=FIX.4.2|9=126|35=D|34=567|49=OPS_CANDIDATE_6_2396|52=20240912-17:53:42.000|56=DTL|11=order-475|38=100|40=2|44=125.870850466047|54=2|55=MSFT|10=049|
20240912-17:53:42.000000000 : 8=FIX.4.2|9=126|35=D|34=568|49=OPS_CANDIDATE_6_2396|52=20240912-17:53:42.000|56=DTL|11=order-476|38=100|40=2|44=136.099877328041|54=2|55=MSFT|10=056|
20240912-17:53:43.000000000 : 8=FIX.4.2|9=107|35=F|34=569|49=OPS_CANDIDATE_6_2396|52=20240912-17:53:43.000|56=DTL|11=cancel-476|41=order-292|54=1|55=BAC|10=163|
20240912-17:53:43.000000000 : 8=FIX.4.2|9=125|35=D|34=570|49=OPS_CANDIDATE_6_2396|52=20240912-17:53:43.000|56=DTL|11=order-477|38=100|40=2|44=124.731183319354|54=1|55=BAC|10=176|
20240912-17:53:43.000000000 : 8=FIX.4.2|9=126|35=D|34=571|49=OPS_CANDIDATE_6_2396|52=20240912-17:53:43.000|56=DTL|11=order-478|38=100|40=2|44=134.754781351772|54=2|55=MSFT|10=050|
20240912-17:53:43.000000000 : 8=FIX.4.2|9=105|35=D|34=572|49=OPS_CANDIDATE_6_2396|52=20240912-17:53:43.000|56=DTL|11=order-479|38=100|40=1|54=1|55=BAC|10=214|
20240912-17:53:43.000000000 : 8=FIX.4.2|9=106|35=D|34=573|49=OPS_CANDIDATE_6_2396|52=20240912-17:53:43.000|56=DTL|11=order-480|38=100|40=1|54=2|55=MSFT|10=069|
20240912-17:53:44.000000000 : 8=FIX.4.2|9=106|35=D|34=574|49=OPS_CANDIDATE_6_2396|52=20240912-17:53:44.000|56=DTL|11=order-481|38=100|40=1|54=2|55=MSFT|10=072|
20240912-17:53:44.000000000 : 8=FIX.4.2|9=106|35=D|34=575|49=OPS_CANDIDATE_6_2396|52=20240912-17:53:44.000|56=DTL|11=order-482|38=100|40=1|54=1|55=MSFT|10=073|
20240912-17:53:44.000000000 : 8=FIX.4.2|9=126|35=D|34=576|49=OPS_CANDIDATE_6_2396|52=20240912-17:53:44.000|56=DTL|11=order-483|38=100|40=2|44=131.327457795933|54=1|55=MSFT|10=055|
20240912-17:53:44.000000000 : 8=FIX.4.2|9=125|35=D|34=577|49=OPS_CANDIDATE_6_2396|52=20240912-17:53:44.000|56=DTL|11=order-484|38=100|40=2|44=131.919650602522|54=2|55=BAC|10=180|
20240912-17:53:44.000000000 : 8=FIX.4.2|9=107|35=F|34=578|49=OPS_CANDIDATE_6_2396|52=20240912-17:53:44.000|56=DTL|11=cancel-484|41=order-108|54=2|55=BAC|10=160|
20240912-17:53:44.000000000 : 8=FIX.4.2|9=126|35=D|34=579|49=OPS_CANDIDATE_6_2396|52=20240912-17:53:44.000|56=DTL|11=order-485|38=100|40=2|44=130.194795958117|54=2|55=MSFT|10=062|
20240912-17:53:45.000000000 : 8=FIX.4.2|9=126|35=D|34=580|49=OPS_CANDIDATE_6_2396|52=20240912-17:53:45.000|56=DTL|11=order-486|38=100|40=2|44=128.432413115549|54=1|55=AAPL|10=010|
20240912-17:53:45.000000000 : 8=FIX.4.2|9=106|35=D|34=581|49=OPS_CANDIDATE_6_2396|52=20240912-17:53:45.000|56=DTL|11=order-487|38=100|40=1|54=1|55=AAPL|10=048|
20240912-17:53:45.000000000 : 8=FIX.4.2|9=126|35=D|34=582|49=OPS_CANDIDATE_6_2396|52=20240912-17:53:45.000|56=DTL|11=order-488|38=100|40=2|44=137.747916579479|54=1|55=AAPL|10=047|
20240912-17:53:45.000000000 : 8=FIX.4.2|9=125|35=D|34=583|49=OPS_CANDIDATE_6_2396|52=20240912-17:53:45.000|56=DTL|11=order-489|38=100|40=2|44=143.051970521482|54=2|55=BAC|10=183|
20240912-17:53:45.000000000 : 8=FIX.4.2|9=108|35=F|34=584|49=OPS_CANDIDATE_6_2396|52=20240912-17:53:45.000|56=DTL|11=cancel-489|41=order-141|54=1|55=MSFT|10=020|
20240912-17:53:45.000000000 : 8=FIX.4.2|9=125|35=D|34=585|49=OPS_CANDIDATE_6_2396|52=20240912-17:53:45.000|56=DTL|11=order-490|38=100|40=2|44=105.509555819348|54=2|55=BAC|10=193|
20240912-17:53:46.000000000 : 8=FIX.4.2|9=106|35=D|34=586|49=OPS_CANDIDATE_6_2396|52=20240912-17:53:46.000|56=DTL|11=order-491|38=100|40=1|54=2|55=AAPL|10=050|
20240912-17:53:46.000000000 : 8=FIX.4.2|9=108|35=F|34=587|49=OPS_CANDIDATE_6_2396|52=20240912-17:53:46.000|56=DTL|11=cancel-491|41=order-145|54=2|55=AAPL|10=250|
20240912-17:53:46.000000000 : 8=FIX.4.2|9=125|35=D|34=588|49=OPS_CANDIDATE_6_2396|52=20240912-17:53:46.000|56=DTL|11=order-492|38=100|40=2|44=111.21660303092|54=1|55=AAPL|10=205|
20240912-17:53:46.000000000 : 8=FIX.4.2|9=106|35=D|34=589|49=OPS_CANDIDATE_6_2396|52=20240912-17:53:46.000|56=DTL|11=order-493|38=100|40=1|54=1|55=AAPL|10=054|
