8=FIX.4.2|9=84|35=A|34=1|49=OPS_CANDIDATE_6_2396|52=20240914-07:44:33.000|56=DTL|98=0|108=30|141=Y|10=162|8=FIX.4.2|9=154|35=D|34=2|49=OPS_CANDIDATE_6_2396|52=20240914-07:44:33.000|56=DTL|11=order-100|21=||38=100|40=2|44=127.573899174221|54=2|55=MSFT|60=20240914-07:44:33.486|10=059|8=FIX.4.2|9=134|35=D|34=3|49=OPS_CANDIDATE_6_2396|52=20240914-07:44:33.000|56=DTL|11=order-101|21=||38=100|40=1|54=1|55=MSFT|60=20240914-07:44:33.799|10=088|8=FIX.4.2|9=133|35=D|34=4|49=OPS_CANDIDATE_6_2396|52=20240914-07:44:34.000|56=DTL|11=order-102|21=||38=100|40=1|54=2|55=BAC|60=20240914-07:44:34.080|10=215|8=FIX.4.2|9=153|35=D|34=5|49=OPS_CANDIDATE_6_2396|52=20240914-07:44:34.000|56=DTL|11=order-103|21=||38=100|40=2|44=125.14702973535|54=2|55=AAPL|60=20240914-07:44:34.377|10=231|8=FIX.4.2|9=154|35=D|34=6|49=OPS_CANDIDATE_6_2396|52=20240914-07:44:34.000|56=DTL|11=order-104|21=||38=100|40=2|44=148.994978411898|54=2|55=MSFT|60=20240914-07:44:34.594|10=091|8=FIX.4.2|9=135|35=F|34=7|49=OPS_CANDIDATE_6_2396|52=20240914-07:44:34.000|56=DTL|11=cancel-order-51|41=order-51|54=1|55=AAPL|60=20240914-07:44:34.871|10=070|8=FIX.4.2|9=134|35=D|34=8|49=OPS_CANDIDATE_6_2396|52=20240914-07:44:34.000|56=DTL|11=order-105|21=||38=100|40=1|54=2|55=MSFT|60=20240914-07:44:34.871|10=091|